{
  "_format": "hh-sol-artifact-1",
  "contractName": "ApproveAndCallFallBackTest",
  "sourceName": "contracts/test/BEP20ApproveAndCallTest.sol",
  "abi": [
    {
      "anonymous": false,
      "inputs": [
        {
          "indexed": false,
          "internalType": "address",
          "name": "from",
          "type": "address"
        },
        {
          "indexed": false,
          "internalType": "uint256",
          "name": "_amount",
          "type": "uint256"
        },
        {
          "indexed": false,
          "internalType": "address",
          "name": "_token",
          "type": "address"
        }
      ],
      "name": "LogTestReceiveApproval",
      "type": "event"
    },
    {
      "inputs": [
        {
          "internalType": "address",
          "name": "_from",
          "type": "address"
        },
        {
          "internalType": "uint256",
          "name": "_amount",
          "type": "uint256"
        },
        {
          "internalType": "bytes",
          "name": "",
          "type": "bytes"
        }
      ],
      "name": "receiveApproval",
      "outputs": [],
      "stateMutability": "nonpayable",
      "type": "function"
    }
  ],
  "bytecode": "0x608060405234801561001057600080fd5b5061028f806100206000396000f3fe608060405234801561001057600080fd5b506004361061002b5760003560e01c8063a2d5785314610030575b600080fd5b61004a6004803603810190610045919061010d565b61004c565b005b7f33820c240b9f71ee68c319fbca7658044db9961994df422750c27f715953efbe84843360405161007f9392919061019f565b60405180910390a150505050565b60008135905061009c8161022b565b92915050565b60008083601f8401126100b8576100b7610217565b5b8235905067ffffffffffffffff8111156100d5576100d4610212565b5b6020830191508360018202830111156100f1576100f061021c565b5b9250929050565b60008135905061010781610242565b92915050565b6000806000806060858703121561012757610126610226565b5b60006101358782880161008d565b9450506020610146878288016100f8565b935050604085013567ffffffffffffffff81111561016757610166610221565b5b610173878288016100a2565b925092505092959194509250565b61018a816101d6565b82525050565b61019981610208565b82525050565b60006060820190506101b46000830186610181565b6101c16020830185610190565b6101ce6040830184610181565b949350505050565b60006101e1826101e8565b9050919050565b600073ffffffffffffffffffffffffffffffffffffffff82169050919050565b6000819050919050565b600080fd5b600080fd5b600080fd5b600080fd5b600080fd5b610234816101d6565b811461023f57600080fd5b50565b61024b81610208565b811461025657600080fd5b5056fea2646970667358221220879ffde7182acc4be1debe4563d9b6ddaa8751b1c265a3850108e3a305d4eb7464736f6c63430008070033",
  "linkReferences": {},
  "deployedLinkReferences": {}
}