{
  "_format": "hh-sol-artifact-1",
  "contractName": "TokenNoMinting",
  "sourceName": "contracts/TokenNoMinting.sol",
  "abi": [
    {
      "inputs": [],
      "stateMutability": "nonpayable",
      "type": "constructor"
    },
    {
      "anonymous": false,
      "inputs": [
        {
          "indexed": true,
          "internalType": "address",
          "name": "owner",
          "type": "address"
        },
        {
          "indexed": true,
          "internalType": "address",
          "name": "spender",
          "type": "address"
        },
        {
          "indexed": false,
          "internalType": "uint256",
          "name": "value",
          "type": "uint256"
        }
      ],
      "name": "Approval",
      "type": "event"
    },
    {
      "anonymous": false,
      "inputs": [
        {
          "indexed": true,
          "internalType": "address",
          "name": "previousOwner",
          "type": "address"
        },
        {
          "indexed": true,
          "internalType": "address",
          "name": "newOwner",
          "type": "address"
        }
      ],
      "name": "OwnershipTransferred",
      "type": "event"
    },
    {
      "anonymous": false,
      "inputs": [
        {
          "indexed": true,
          "internalType": "address",
          "name": "from",
          "type": "address"
        },
        {
          "indexed": true,
          "internalType": "address",
          "name": "to",
          "type": "address"
        },
        {
          "indexed": false,
          "internalType": "uint256",
          "name": "value",
          "type": "uint256"
        }
      ],
      "name": "Transfer",
      "type": "event"
    },
    {
      "inputs": [
        {
          "internalType": "address",
          "name": "owner",
          "type": "address"
        },
        {
          "internalType": "address",
          "name": "spender",
          "type": "address"
        }
      ],
      "name": "allowance",
      "outputs": [
        {
          "internalType": "uint256",
          "name": "",
          "type": "uint256"
        }
      ],
      "stateMutability": "view",
      "type": "function"
    },
    {
      "inputs": [
        {
          "internalType": "address",
          "name": "spender",
          "type": "address"
        },
        {
          "internalType": "uint256",
          "name": "amount",
          "type": "uint256"
        }
      ],
      "name": "approve",
      "outputs": [
        {
          "internalType": "bool",
          "name": "",
          "type": "bool"
        }
      ],
      "stateMutability": "nonpayable",
      "type": "function"
    },
    {
      "inputs": [
        {
          "internalType": "contract ApproveAndCallFallBack",
          "name": "_spender",
          "type": "address"
        },
        {
          "internalType": "uint256",
          "name": "_amount",
          "type": "uint256"
        },
        {
          "internalType": "bytes",
          "name": "_extraData",
          "type": "bytes"
        }
      ],
      "name": "approveAndCall",
      "outputs": [
        {
          "internalType": "bool",
          "name": "success",
          "type": "bool"
        }
      ],
      "stateMutability": "nonpayable",
      "type": "function"
    },
    {
      "inputs": [
        {
          "internalType": "address",
          "name": "account",
          "type": "address"
        }
      ],
      "name": "balanceOf",
      "outputs": [
        {
          "internalType": "uint256",
          "name": "",
          "type": "uint256"
        }
      ],
      "stateMutability": "view",
      "type": "function"
    },
    {
      "inputs": [
        {
          "internalType": "uint256",
          "name": "amount",
          "type": "uint256"
        }
      ],
      "name": "burn",
      "outputs": [
        {
          "internalType": "bool",
          "name": "",
          "type": "bool"
        }
      ],
      "stateMutability": "nonpayable",
      "type": "function"
    },
    {
      "inputs": [],
      "name": "decimals",
      "outputs": [
        {
          "internalType": "uint8",
          "name": "",
          "type": "uint8"
        }
      ],
      "stateMutability": "view",
      "type": "function"
    },
    {
      "inputs": [
        {
          "internalType": "address",
          "name": "spender",
          "type": "address"
        },
        {
          "internalType": "uint256",
          "name": "subtractedValue",
          "type": "uint256"
        }
      ],
      "name": "decreaseAllowance",
      "outputs": [
        {
          "internalType": "bool",
          "name": "",
          "type": "bool"
        }
      ],
      "stateMutability": "nonpayable",
      "type": "function"
    },
    {
      "inputs": [],
      "name": "getOwner",
      "outputs": [
        {
          "internalType": "address",
          "name": "",
          "type": "address"
        }
      ],
      "stateMutability": "view",
      "type": "function"
    },
    {
      "inputs": [
        {
          "internalType": "address",
          "name": "spender",
          "type": "address"
        },
        {
          "internalType": "uint256",
          "name": "addedValue",
          "type": "uint256"
        }
      ],
      "name": "increaseAllowance",
      "outputs": [
        {
          "internalType": "bool",
          "name": "",
          "type": "bool"
        }
      ],
      "stateMutability": "nonpayable",
      "type": "function"
    },
    {
      "inputs": [
        {
          "internalType": "string",
          "name": "name_",
          "type": "string"
        },
        {
          "internalType": "string",
          "name": "symbol_",
          "type": "string"
        },
        {
          "internalType": "uint8",
          "name": "decimals_",
          "type": "uint8"
        },
        {
          "internalType": "uint256",
          "name": "amount",
          "type": "uint256"
        },
        {
          "internalType": "bool",
          "name": "mintable_",
          "type": "bool"
        },
        {
          "internalType": "address",
          "name": "owner",
          "type": "address"
        }
      ],
      "name": "initialize",
      "outputs": [],
      "stateMutability": "nonpayable",
      "type": "function"
    },
    {
      "inputs": [],
      "name": "mintable",
      "outputs": [
        {
          "internalType": "bool",
          "name": "",
          "type": "bool"
        }
      ],
      "stateMutability": "view",
      "type": "function"
    },
    {
      "inputs": [],
      "name": "name",
      "outputs": [
        {
          "internalType": "string",
          "name": "",
          "type": "string"
        }
      ],
      "stateMutability": "view",
      "type": "function"
    },
    {
      "inputs": [],
      "name": "renounceOwnership",
      "outputs": [],
      "stateMutability": "nonpayable",
      "type": "function"
    },
    {
      "inputs": [],
      "name": "symbol",
      "outputs": [
        {
          "internalType": "string",
          "name": "",
          "type": "string"
        }
      ],
      "stateMutability": "view",
      "type": "function"
    },
    {
      "inputs": [],
      "name": "totalSupply",
      "outputs": [
        {
          "internalType": "uint256",
          "name": "",
          "type": "uint256"
        }
      ],
      "stateMutability": "view",
      "type": "function"
    },
    {
      "inputs": [
        {
          "internalType": "address",
          "name": "recipient",
          "type": "address"
        },
        {
          "internalType": "uint256",
          "name": "amount",
          "type": "uint256"
        }
      ],
      "name": "transfer",
      "outputs": [
        {
          "internalType": "bool",
          "name": "",
          "type": "bool"
        }
      ],
      "stateMutability": "nonpayable",
      "type": "function"
    },
    {
      "inputs": [
        {
          "internalType": "address",
          "name": "sender",
          "type": "address"
        },
        {
          "internalType": "address",
          "name": "recipient",
          "type": "address"
        },
        {
          "internalType": "uint256",
          "name": "amount",
          "type": "uint256"
        }
      ],
      "name": "transferFrom",
      "outputs": [
        {
          "internalType": "bool",
          "name": "",
          "type": "bool"
        }
      ],
      "stateMutability": "nonpayable",
      "type": "function"
    },
    {
      "inputs": [
        {
          "internalType": "address",
          "name": "newOwner",
          "type": "address"
        }
      ],
      "name": "transferOwnership",
      "outputs": [],
      "stateMutability": "nonpayable",
      "type": "function"
    }
  ],
  "bytecode": "0x608060405234801561001057600080fd5b506124a6806100206000396000f3fe608060405234801561001057600080fd5b50600436106101165760003560e01c8063715018a6116100a2578063a9059cbb11610071578063a9059cbb146102f9578063cae9ca5114610329578063dd62ed3e14610359578063ef3ebcb814610389578063f2fde38b146103a557610116565b8063715018a614610283578063893d20e81461028d57806395d89b41146102ab578063a457c2d7146102c957610116565b8063313ce567116100e9578063313ce567146101b757806339509351146101d557806342966c68146102055780634bf365df1461023557806370a082311461025357610116565b806306fdde031461011b578063095ea7b31461013957806318160ddd1461016957806323b872dd14610187575b600080fd5b6101236103c1565b6040516101309190611ca0565b60405180910390f35b610153600480360381019061014e91906118a7565b610453565b6040516101609190611c85565b60405180910390f35b610171610471565b60405161017e9190611de2565b60405180910390f35b6101a1600480360381019061019c9190611854565b61047b565b6040516101ae9190611c85565b60405180910390f35b6101bf610554565b6040516101cc9190611dfd565b60405180910390f35b6101ef60048036038101906101ea91906118a7565b61056b565b6040516101fc9190611c85565b60405180910390f35b61021f600480360381019061021a9190611a20565b61061e565b60405161022c9190611c85565b60405180910390f35b61023d61063a565b60405161024a9190611c85565b60405180910390f35b61026d600480360381019061026891906117e7565b610651565b60405161027a9190611de2565b60405180910390f35b61028b61069a565b005b6102956107f2565b6040516102a29190611c2a565b60405180910390f35b6102b361081c565b6040516102c09190611ca0565b60405180910390f35b6102e360048036038101906102de91906118a7565b6108ae565b6040516102f09190611c85565b60405180910390f35b610313600480360381019061030e91906118a7565b61097b565b6040516103209190611c85565b60405180910390f35b610343600480360381019061033e91906118e7565b610999565b6040516103509190611c85565b60405180910390f35b610373600480360381019061036e9190611814565b610a2a565b6040516103809190611de2565b60405180910390f35b6103a3600480360381019061039e919061195b565b610ab1565b005b6103bf60048036038101906103ba91906117e7565b610c3e565b005b6060600480546103d090611fce565b80601f01602080910402602001604051908101604052809291908181526020018280546103fc90611fce565b80156104495780601f1061041e57610100808354040283529160200191610449565b820191906000526020600020905b81548152906001019060200180831161042c57829003601f168201915b5050505050905090565b6000610467610460610e05565b8484610e0d565b6001905092915050565b6000600354905090565b6000610488848484610fd8565b61054984610494610e05565b610544856040518060600160405280602881526020016123dc60289139600260008b73ffffffffffffffffffffffffffffffffffffffff1673ffffffffffffffffffffffffffffffffffffffff16815260200190815260200160002060006104fa610e05565b73ffffffffffffffffffffffffffffffffffffffff1673ffffffffffffffffffffffffffffffffffffffff168152602001908152602001600020546112669092919063ffffffff16565b610e0d565b600190509392505050565b6000600660009054906101000a900460ff16905090565b6000610614610578610e05565b8461060f8560026000610589610e05565b73ffffffffffffffffffffffffffffffffffffffff1673ffffffffffffffffffffffffffffffffffffffff16815260200190815260200160002060008973ffffffffffffffffffffffffffffffffffffffff1673ffffffffffffffffffffffffffffffffffffffff168152602001908152602001600020546112bb90919063ffffffff16565b610e0d565b6001905092915050565b600061063161062b610e05565b836112d1565b60019050919050565b6000600660159054906101000a900460ff16905090565b6000600160008373ffffffffffffffffffffffffffffffffffffffff1673ffffffffffffffffffffffffffffffffffffffff168152602001908152602001600020549050919050565b6106a2610e05565b73ffffffffffffffffffffffffffffffffffffffff16600660019054906101000a900473ffffffffffffffffffffffffffffffffffffffff1673ffffffffffffffffffffffffffffffffffffffff1614610731576040517f08c379a000000000000000000000000000000000000000000000000000000000815260040161072890611d62565b60405180910390fd5b600073ffffffffffffffffffffffffffffffffffffffff16600660019054906101000a900473ffffffffffffffffffffffffffffffffffffffff1673ffffffffffffffffffffffffffffffffffffffff167f8be0079c531659141344cd1fd0a4f28419497f9722a3daafe3b4186f6b6457e060405160405180910390a36000600660016101000a81548173ffffffffffffffffffffffffffffffffffffffff021916908373ffffffffffffffffffffffffffffffffffffffff160217905550565b6000600660019054906101000a900473ffffffffffffffffffffffffffffffffffffffff16905090565b60606005805461082b90611fce565b80601f016020809104026020016040519081016040528092919081815260200182805461085790611fce565b80156108a45780601f10610879576101008083540402835291602001916108a4565b820191906000526020600020905b81548152906001019060200180831161088757829003601f168201915b5050505050905090565b60006109716108bb610e05565b8461096c8560405180606001604052806025815260200161242a60259139600260006108e5610e05565b73ffffffffffffffffffffffffffffffffffffffff1673ffffffffffffffffffffffffffffffffffffffff16815260200190815260200160002060008a73ffffffffffffffffffffffffffffffffffffffff1673ffffffffffffffffffffffffffffffffffffffff168152602001908152602001600020546112669092919063ffffffff16565b610e0d565b6001905092915050565b600061098f610988610e05565b8484610fd8565b6001905092915050565b60006109ad6109a6610e05565b8686610e0d565b8473ffffffffffffffffffffffffffffffffffffffff1663a2d57853338686866040518563ffffffff1660e01b81526004016109ec9493929190611c45565b600060405180830381600087803b158015610a0657600080fd5b505af1158015610a1a573d6000803e3d6000fd5b5050505060019050949350505050565b6000600260008473ffffffffffffffffffffffffffffffffffffffff1673ffffffffffffffffffffffffffffffffffffffff16815260200190815260200160002060008373ffffffffffffffffffffffffffffffffffffffff1673ffffffffffffffffffffffffffffffffffffffff16815260200190815260200160002054905092915050565b600060019054906101000a900460ff1680610ad7575060008054906101000a900460ff16155b610b16576040517f08c379a0000000000000000000000000000000000000000000000000000000008152600401610b0d90611d22565b60405180910390fd5b60008060019054906101000a900460ff161590508015610b66576001600060016101000a81548160ff02191690831515021790555060016000806101000a81548160ff0219169083151502179055505b81600660016101000a81548173ffffffffffffffffffffffffffffffffffffffff021916908373ffffffffffffffffffffffffffffffffffffffff1602179055508660049080519060200190610bbd929190611615565b508560059080519060200190610bd4929190611615565b5084600660006101000a81548160ff021916908360ff16021790555082600660156101000a81548160ff021916908315150217905550610c148285611475565b8015610c355760008060016101000a81548160ff0219169083151502179055505b50505050505050565b610c46610e05565b73ffffffffffffffffffffffffffffffffffffffff16600660019054906101000a900473ffffffffffffffffffffffffffffffffffffffff1673ffffffffffffffffffffffffffffffffffffffff1614610cd5576040517f08c379a0000000000000000000000000000000000000000000000000000000008152600401610ccc90611d62565b60405180910390fd5b600073ffffffffffffffffffffffffffffffffffffffff168173ffffffffffffffffffffffffffffffffffffffff161415610d45576040517f08c379a0000000000000000000000000000000000000000000000000000000008152600401610d3c90611d02565b60405180910390fd5b8073ffffffffffffffffffffffffffffffffffffffff16600660019054906101000a900473ffffffffffffffffffffffffffffffffffffffff1673ffffffffffffffffffffffffffffffffffffffff167f8be0079c531659141344cd1fd0a4f28419497f9722a3daafe3b4186f6b6457e060405160405180910390a380600660016101000a81548173ffffffffffffffffffffffffffffffffffffffff021916908373ffffffffffffffffffffffffffffffffffffffff16021790555050565b600033905090565b600073ffffffffffffffffffffffffffffffffffffffff168373ffffffffffffffffffffffffffffffffffffffff161415610e7d576040517f08c379a0000000000000000000000000000000000000000000000000000000008152600401610e7490611ce2565b60405180910390fd5b600073ffffffffffffffffffffffffffffffffffffffff168273ffffffffffffffffffffffffffffffffffffffff161415610eed576040517f08c379a0000000000000000000000000000000000000000000000000000000008152600401610ee490611dc2565b60405180910390fd5b80600260008573ffffffffffffffffffffffffffffffffffffffff1673ffffffffffffffffffffffffffffffffffffffff16815260200190815260200160002060008473ffffffffffffffffffffffffffffffffffffffff1673ffffffffffffffffffffffffffffffffffffffff168152602001908152602001600020819055508173ffffffffffffffffffffffffffffffffffffffff168373ffffffffffffffffffffffffffffffffffffffff167f8c5be1e5ebec7d5bd14f71427d1e84f3dd0314c0f7b2291e5b200ac8c7c3b92583604051610fcb9190611de2565b60405180910390a3505050565b600073ffffffffffffffffffffffffffffffffffffffff168373ffffffffffffffffffffffffffffffffffffffff161415611048576040517f08c379a000000000000000000000000000000000000000000000000000000000815260040161103f90611cc2565b60405180910390fd5b600073ffffffffffffffffffffffffffffffffffffffff168273ffffffffffffffffffffffffffffffffffffffff1614156110b8576040517f08c379a00000000000000000000000000000000000000000000000000000000081526004016110af90611d82565b60405180910390fd5b6111248160405180606001604052806026815260200161240460269139600160008773ffffffffffffffffffffffffffffffffffffffff1673ffffffffffffffffffffffffffffffffffffffff168152602001908152602001600020546112669092919063ffffffff16565b600160008573ffffffffffffffffffffffffffffffffffffffff1673ffffffffffffffffffffffffffffffffffffffff168152602001908152602001600020819055506111b981600160008573ffffffffffffffffffffffffffffffffffffffff1673ffffffffffffffffffffffffffffffffffffffff168152602001908152602001600020546112bb90919063ffffffff16565b600160008473ffffffffffffffffffffffffffffffffffffffff1673ffffffffffffffffffffffffffffffffffffffff168152602001908152602001600020819055508173ffffffffffffffffffffffffffffffffffffffff168373ffffffffffffffffffffffffffffffffffffffff167fddf252ad1be2c89b69c2b068fc378daa952ba7f163c4a11628f55a4df523b3ef836040516112599190611de2565b60405180910390a3505050565b60008383111582906112ae576040517f08c379a00000000000000000000000000000000000000000000000000000000081526004016112a59190611ca0565b60405180910390fd5b5082840390509392505050565b600081836112c99190611e9b565b905092915050565b600073ffffffffffffffffffffffffffffffffffffffff168273ffffffffffffffffffffffffffffffffffffffff161415611341576040517f08c379a000000000000000000000000000000000000000000000000000000000815260040161133890611da2565b60405180910390fd5b6113ad8160405180606001604052806022815260200161244f60229139600160008673ffffffffffffffffffffffffffffffffffffffff1673ffffffffffffffffffffffffffffffffffffffff168152602001908152602001600020546112669092919063ffffffff16565b600160008473ffffffffffffffffffffffffffffffffffffffff1673ffffffffffffffffffffffffffffffffffffffff16815260200190815260200160002081905550611405816003546115ff90919063ffffffff16565b600381905550600073ffffffffffffffffffffffffffffffffffffffff168273ffffffffffffffffffffffffffffffffffffffff167fddf252ad1be2c89b69c2b068fc378daa952ba7f163c4a11628f55a4df523b3ef836040516114699190611de2565b60405180910390a35050565b600073ffffffffffffffffffffffffffffffffffffffff168273ffffffffffffffffffffffffffffffffffffffff1614156114e5576040517f08c379a00000000000000000000000000000000000000000000000000000000081526004016114dc90611d42565b60405180910390fd5b6114fa816003546112bb90919063ffffffff16565b60038190555061155281600160008573ffffffffffffffffffffffffffffffffffffffff1673ffffffffffffffffffffffffffffffffffffffff168152602001908152602001600020546112bb90919063ffffffff16565b600160008473ffffffffffffffffffffffffffffffffffffffff1673ffffffffffffffffffffffffffffffffffffffff168152602001908152602001600020819055508173ffffffffffffffffffffffffffffffffffffffff16600073ffffffffffffffffffffffffffffffffffffffff167fddf252ad1be2c89b69c2b068fc378daa952ba7f163c4a11628f55a4df523b3ef836040516115f39190611de2565b60405180910390a35050565b6000818361160d9190611ef1565b905092915050565b82805461162190611fce565b90600052602060002090601f016020900481019282611643576000855561168a565b82601f1061165c57805160ff191683800117855561168a565b8280016001018555821561168a579182015b8281111561168957825182559160200191906001019061166e565b5b509050611697919061169b565b5090565b5b808211156116b457600081600090555060010161169c565b5090565b60006116cb6116c684611e3d565b611e18565b9050828152602081018484840111156116e7576116e66120cd565b5b6116f2848285611f8c565b509392505050565b60008135905061170981612368565b92915050565b60008135905061171e8161237f565b92915050565b60008083601f84011261173a576117396120c3565b5b8235905067ffffffffffffffff811115611757576117566120be565b5b602083019150836001820283011115611773576117726120c8565b5b9250929050565b60008135905061178981612396565b92915050565b600082601f8301126117a4576117a36120c3565b5b81356117b48482602086016116b8565b91505092915050565b6000813590506117cc816123ad565b92915050565b6000813590506117e1816123c4565b92915050565b6000602082840312156117fd576117fc6120d7565b5b600061180b848285016116fa565b91505092915050565b6000806040838503121561182b5761182a6120d7565b5b6000611839858286016116fa565b925050602061184a858286016116fa565b9150509250929050565b60008060006060848603121561186d5761186c6120d7565b5b600061187b868287016116fa565b935050602061188c868287016116fa565b925050604061189d868287016117bd565b9150509250925092565b600080604083850312156118be576118bd6120d7565b5b60006118cc858286016116fa565b92505060206118dd858286016117bd565b9150509250929050565b60008060008060608587031215611901576119006120d7565b5b600061190f8782880161177a565b9450506020611920878288016117bd565b935050604085013567ffffffffffffffff811115611941576119406120d2565b5b61194d87828801611724565b925092505092959194509250565b60008060008060008060c08789031215611978576119776120d7565b5b600087013567ffffffffffffffff811115611996576119956120d2565b5b6119a289828a0161178f565b965050602087013567ffffffffffffffff8111156119c3576119c26120d2565b5b6119cf89828a0161178f565b95505060406119e089828a016117d2565b94505060606119f189828a016117bd565b9350506080611a0289828a0161170f565b92505060a0611a1389828a016116fa565b9150509295509295509295565b600060208284031215611a3657611a356120d7565b5b6000611a44848285016117bd565b91505092915050565b611a5681611f25565b82525050565b611a6581611f37565b82525050565b6000611a778385611e79565b9350611a84838584611f8c565b611a8d836120dc565b840190509392505050565b6000611aa382611e6e565b611aad8185611e8a565b9350611abd818560208601611f9b565b611ac6816120dc565b840191505092915050565b6000611ade602583611e8a565b9150611ae9826120ed565b604082019050919050565b6000611b01602483611e8a565b9150611b0c8261213c565b604082019050919050565b6000611b24602683611e8a565b9150611b2f8261218b565b604082019050919050565b6000611b47602e83611e8a565b9150611b52826121da565b604082019050919050565b6000611b6a601f83611e8a565b9150611b7582612229565b602082019050919050565b6000611b8d602083611e8a565b9150611b9882612252565b602082019050919050565b6000611bb0602383611e8a565b9150611bbb8261227b565b604082019050919050565b6000611bd3602183611e8a565b9150611bde826122ca565b604082019050919050565b6000611bf6602283611e8a565b9150611c0182612319565b604082019050919050565b611c1581611f75565b82525050565b611c2481611f7f565b82525050565b6000602082019050611c3f6000830184611a4d565b92915050565b6000606082019050611c5a6000830187611a4d565b611c676020830186611c0c565b8181036040830152611c7a818486611a6b565b905095945050505050565b6000602082019050611c9a6000830184611a5c565b92915050565b60006020820190508181036000830152611cba8184611a98565b905092915050565b60006020820190508181036000830152611cdb81611ad1565b9050919050565b60006020820190508181036000830152611cfb81611af4565b9050919050565b60006020820190508181036000830152611d1b81611b17565b9050919050565b60006020820190508181036000830152611d3b81611b3a565b9050919050565b60006020820190508181036000830152611d5b81611b5d565b9050919050565b60006020820190508181036000830152611d7b81611b80565b9050919050565b60006020820190508181036000830152611d9b81611ba3565b9050919050565b60006020820190508181036000830152611dbb81611bc6565b9050919050565b60006020820190508181036000830152611ddb81611be9565b9050919050565b6000602082019050611df76000830184611c0c565b92915050565b6000602082019050611e126000830184611c1b565b92915050565b6000611e22611e33565b9050611e2e8282612000565b919050565b6000604051905090565b600067ffffffffffffffff821115611e5857611e5761208f565b5b611e61826120dc565b9050602081019050919050565b600081519050919050565b600082825260208201905092915050565b600082825260208201905092915050565b6000611ea682611f75565b9150611eb183611f75565b9250827fffffffffffffffffffffffffffffffffffffffffffffffffffffffffffffffff03821115611ee657611ee5612031565b5b828201905092915050565b6000611efc82611f75565b9150611f0783611f75565b925082821015611f1a57611f19612031565b5b828203905092915050565b6000611f3082611f55565b9050919050565b60008115159050919050565b6000611f4e82611f25565b9050919050565b600073ffffffffffffffffffffffffffffffffffffffff82169050919050565b6000819050919050565b600060ff82169050919050565b82818337600083830152505050565b60005b83811015611fb9578082015181840152602081019050611f9e565b83811115611fc8576000848401525b50505050565b60006002820490506001821680611fe657607f821691505b60208210811415611ffa57611ff9612060565b5b50919050565b612009826120dc565b810181811067ffffffffffffffff821117156120285761202761208f565b5b80604052505050565b7f4e487b7100000000000000000000000000000000000000000000000000000000600052601160045260246000fd5b7f4e487b7100000000000000000000000000000000000000000000000000000000600052602260045260246000fd5b7f4e487b7100000000000000000000000000000000000000000000000000000000600052604160045260246000fd5b600080fd5b600080fd5b600080fd5b600080fd5b600080fd5b600080fd5b6000601f19601f8301169050919050565b7f42455032303a207472616e736665722066726f6d20746865207a65726f20616460008201527f6472657373000000000000000000000000000000000000000000000000000000602082015250565b7f42455032303a20617070726f76652066726f6d20746865207a65726f2061646460008201527f7265737300000000000000000000000000000000000000000000000000000000602082015250565b7f4f776e61626c653a206e6577206f776e657220697320746865207a65726f206160008201527f6464726573730000000000000000000000000000000000000000000000000000602082015250565b7f496e697469616c697a61626c653a20636f6e747261637420697320616c72656160008201527f647920696e697469616c697a6564000000000000000000000000000000000000602082015250565b7f42455032303a206d696e7420746f20746865207a65726f206164647265737300600082015250565b7f4f776e61626c653a2063616c6c6572206973206e6f7420746865206f776e6572600082015250565b7f42455032303a207472616e7366657220746f20746865207a65726f206164647260008201527f6573730000000000000000000000000000000000000000000000000000000000602082015250565b7f42455032303a206275726e2066726f6d20746865207a65726f2061646472657360008201527f7300000000000000000000000000000000000000000000000000000000000000602082015250565b7f42455032303a20617070726f766520746f20746865207a65726f20616464726560008201527f7373000000000000000000000000000000000000000000000000000000000000602082015250565b61237181611f25565b811461237c57600080fd5b50565b61238881611f37565b811461239357600080fd5b50565b61239f81611f43565b81146123aa57600080fd5b50565b6123b681611f75565b81146123c157600080fd5b50565b6123cd81611f7f565b81146123d857600080fd5b5056fe42455032303a207472616e7366657220616d6f756e74206578636565647320616c6c6f77616e636542455032303a207472616e7366657220616d6f756e7420657863656564732062616c616e636542455032303a2064656372656173656420616c6c6f77616e63652062656c6f77207a65726f42455032303a206275726e20616d6f756e7420657863656564732062616c616e6365a2646970667358221220a2ea9edc33ed3c7f766714810f9d8c879cf94c5e9972abda60c1ddb8adccedcf64736f6c63430008070033",
  "linkReferences": {},
  "deployedLinkReferences": {}
}