{
  "_format": "hh-sol-artifact-1",
  "contractName": "Token",
  "sourceName": "contracts/Token.sol",
  "abi": [
    {
      "inputs": [],
      "stateMutability": "nonpayable",
      "type": "constructor"
    },
    {
      "anonymous": false,
      "inputs": [
        {
          "indexed": true,
          "internalType": "address",
          "name": "owner",
          "type": "address"
        },
        {
          "indexed": true,
          "internalType": "address",
          "name": "spender",
          "type": "address"
        },
        {
          "indexed": false,
          "internalType": "uint256",
          "name": "value",
          "type": "uint256"
        }
      ],
      "name": "Approval",
      "type": "event"
    },
    {
      "anonymous": false,
      "inputs": [
        {
          "indexed": true,
          "internalType": "address",
          "name": "previousOwner",
          "type": "address"
        },
        {
          "indexed": true,
          "internalType": "address",
          "name": "newOwner",
          "type": "address"
        }
      ],
      "name": "OwnershipTransferred",
      "type": "event"
    },
    {
      "anonymous": false,
      "inputs": [
        {
          "indexed": true,
          "internalType": "address",
          "name": "from",
          "type": "address"
        },
        {
          "indexed": true,
          "internalType": "address",
          "name": "to",
          "type": "address"
        },
        {
          "indexed": false,
          "internalType": "uint256",
          "name": "value",
          "type": "uint256"
        }
      ],
      "name": "Transfer",
      "type": "event"
    },
    {
      "inputs": [
        {
          "internalType": "address",
          "name": "owner",
          "type": "address"
        },
        {
          "internalType": "address",
          "name": "spender",
          "type": "address"
        }
      ],
      "name": "allowance",
      "outputs": [
        {
          "internalType": "uint256",
          "name": "",
          "type": "uint256"
        }
      ],
      "stateMutability": "view",
      "type": "function"
    },
    {
      "inputs": [
        {
          "internalType": "address",
          "name": "spender",
          "type": "address"
        },
        {
          "internalType": "uint256",
          "name": "amount",
          "type": "uint256"
        }
      ],
      "name": "approve",
      "outputs": [
        {
          "internalType": "bool",
          "name": "",
          "type": "bool"
        }
      ],
      "stateMutability": "nonpayable",
      "type": "function"
    },
    {
      "inputs": [
        {
          "internalType": "address",
          "name": "account",
          "type": "address"
        }
      ],
      "name": "balanceOf",
      "outputs": [
        {
          "internalType": "uint256",
          "name": "",
          "type": "uint256"
        }
      ],
      "stateMutability": "view",
      "type": "function"
    },
    {
      "inputs": [
        {
          "internalType": "uint256",
          "name": "amount",
          "type": "uint256"
        }
      ],
      "name": "burn",
      "outputs": [
        {
          "internalType": "bool",
          "name": "",
          "type": "bool"
        }
      ],
      "stateMutability": "nonpayable",
      "type": "function"
    },
    {
      "inputs": [],
      "name": "decimals",
      "outputs": [
        {
          "internalType": "uint8",
          "name": "",
          "type": "uint8"
        }
      ],
      "stateMutability": "view",
      "type": "function"
    },
    {
      "inputs": [
        {
          "internalType": "address",
          "name": "spender",
          "type": "address"
        },
        {
          "internalType": "uint256",
          "name": "subtractedValue",
          "type": "uint256"
        }
      ],
      "name": "decreaseAllowance",
      "outputs": [
        {
          "internalType": "bool",
          "name": "",
          "type": "bool"
        }
      ],
      "stateMutability": "nonpayable",
      "type": "function"
    },
    {
      "inputs": [],
      "name": "getOwner",
      "outputs": [
        {
          "internalType": "address",
          "name": "",
          "type": "address"
        }
      ],
      "stateMutability": "view",
      "type": "function"
    },
    {
      "inputs": [
        {
          "internalType": "address",
          "name": "spender",
          "type": "address"
        },
        {
          "internalType": "uint256",
          "name": "addedValue",
          "type": "uint256"
        }
      ],
      "name": "increaseAllowance",
      "outputs": [
        {
          "internalType": "bool",
          "name": "",
          "type": "bool"
        }
      ],
      "stateMutability": "nonpayable",
      "type": "function"
    },
    {
      "inputs": [
        {
          "internalType": "string",
          "name": "name_",
          "type": "string"
        },
        {
          "internalType": "string",
          "name": "symbol_",
          "type": "string"
        },
        {
          "internalType": "uint8",
          "name": "decimals_",
          "type": "uint8"
        },
        {
          "internalType": "uint256",
          "name": "amount",
          "type": "uint256"
        },
        {
          "internalType": "bool",
          "name": "mintable_",
          "type": "bool"
        },
        {
          "internalType": "address",
          "name": "owner",
          "type": "address"
        }
      ],
      "name": "initialize",
      "outputs": [],
      "stateMutability": "nonpayable",
      "type": "function"
    },
    {
      "inputs": [
        {
          "internalType": "uint256",
          "name": "amount",
          "type": "uint256"
        }
      ],
      "name": "mint",
      "outputs": [
        {
          "internalType": "bool",
          "name": "",
          "type": "bool"
        }
      ],
      "stateMutability": "nonpayable",
      "type": "function"
    },
    {
      "inputs": [],
      "name": "mintable",
      "outputs": [
        {
          "internalType": "bool",
          "name": "",
          "type": "bool"
        }
      ],
      "stateMutability": "view",
      "type": "function"
    },
    {
      "inputs": [],
      "name": "name",
      "outputs": [
        {
          "internalType": "string",
          "name": "",
          "type": "string"
        }
      ],
      "stateMutability": "view",
      "type": "function"
    },
    {
      "inputs": [],
      "name": "renounceOwnership",
      "outputs": [],
      "stateMutability": "nonpayable",
      "type": "function"
    },
    {
      "inputs": [],
      "name": "symbol",
      "outputs": [
        {
          "internalType": "string",
          "name": "",
          "type": "string"
        }
      ],
      "stateMutability": "view",
      "type": "function"
    },
    {
      "inputs": [],
      "name": "totalSupply",
      "outputs": [
        {
          "internalType": "uint256",
          "name": "",
          "type": "uint256"
        }
      ],
      "stateMutability": "view",
      "type": "function"
    },
    {
      "inputs": [
        {
          "internalType": "address",
          "name": "recipient",
          "type": "address"
        },
        {
          "internalType": "uint256",
          "name": "amount",
          "type": "uint256"
        }
      ],
      "name": "transfer",
      "outputs": [
        {
          "internalType": "bool",
          "name": "",
          "type": "bool"
        }
      ],
      "stateMutability": "nonpayable",
      "type": "function"
    },
    {
      "inputs": [
        {
          "internalType": "address",
          "name": "sender",
          "type": "address"
        },
        {
          "internalType": "address",
          "name": "recipient",
          "type": "address"
        },
        {
          "internalType": "uint256",
          "name": "amount",
          "type": "uint256"
        }
      ],
      "name": "transferFrom",
      "outputs": [
        {
          "internalType": "bool",
          "name": "",
          "type": "bool"
        }
      ],
      "stateMutability": "nonpayable",
      "type": "function"
    },
    {
      "inputs": [
        {
          "internalType": "address",
          "name": "newOwner",
          "type": "address"
        }
      ],
      "name": "transferOwnership",
      "outputs": [],
      "stateMutability": "nonpayable",
      "type": "function"
    }
  ],
  "bytecode": "0x608060405234801561001057600080fd5b506123f3806100206000396000f3fe608060405234801561001057600080fd5b50600436106101165760003560e01c8063715018a6116100a2578063a457c2d711610071578063a457c2d7146102f9578063a9059cbb14610329578063dd62ed3e14610359578063ef3ebcb814610389578063f2fde38b146103a557610116565b8063715018a614610283578063893d20e81461028d57806395d89b41146102ab578063a0712d68146102c957610116565b8063313ce567116100e9578063313ce567146101b757806339509351146101d557806342966c68146102055780634bf365df1461023557806370a082311461025357610116565b806306fdde031461011b578063095ea7b31461013957806318160ddd1461016957806323b872dd14610187575b600080fd5b6101236103c1565b6040516101309190611be8565b60405180910390f35b610153600480360381019061014e91906118ad565b610453565b6040516101609190611bcd565b60405180910390f35b610171610471565b60405161017e9190611d4a565b60405180910390f35b6101a1600480360381019061019c919061185a565b61047b565b6040516101ae9190611bcd565b60405180910390f35b6101bf610554565b6040516101cc9190611d65565b60405180910390f35b6101ef60048036038101906101ea91906118ad565b61056b565b6040516101fc9190611bcd565b60405180910390f35b61021f600480360381019061021a91906119b2565b61061e565b60405161022c9190611bcd565b60405180910390f35b61023d61063a565b60405161024a9190611bcd565b60405180910390f35b61026d600480360381019061026891906117ed565b610651565b60405161027a9190611d4a565b60405180910390f35b61028b61069a565b005b6102956107f2565b6040516102a29190611bb2565b60405180910390f35b6102b361081c565b6040516102c09190611be8565b60405180910390f35b6102e360048036038101906102de91906119b2565b6108ae565b6040516102f09190611bcd565b60405180910390f35b610313600480360381019061030e91906118ad565b6109b0565b6040516103209190611bcd565b60405180910390f35b610343600480360381019061033e91906118ad565b610a7d565b6040516103509190611bcd565b60405180910390f35b610373600480360381019061036e919061181a565b610a9b565b6040516103809190611d4a565b60405180910390f35b6103a3600480360381019061039e91906118ed565b610b22565b005b6103bf60048036038101906103ba91906117ed565b610caf565b005b6060600480546103d090611f13565b80601f01602080910402602001604051908101604052809291908181526020018280546103fc90611f13565b80156104495780601f1061041e57610100808354040283529160200191610449565b820191906000526020600020905b81548152906001019060200180831161042c57829003601f168201915b5050505050905090565b6000610467610460610e76565b8484610e7e565b6001905092915050565b6000600354905090565b6000610488848484611049565b61054984610494610e76565b6105448560405180606001604052806028815260200161232960289139600260008b73ffffffffffffffffffffffffffffffffffffffff1673ffffffffffffffffffffffffffffffffffffffff16815260200190815260200160002060006104fa610e76565b73ffffffffffffffffffffffffffffffffffffffff1673ffffffffffffffffffffffffffffffffffffffff168152602001908152602001600020546112d79092919063ffffffff16565b610e7e565b600190509392505050565b6000600660009054906101000a900460ff16905090565b6000610614610578610e76565b8461060f8560026000610589610e76565b73ffffffffffffffffffffffffffffffffffffffff1673ffffffffffffffffffffffffffffffffffffffff16815260200190815260200160002060008973ffffffffffffffffffffffffffffffffffffffff1673ffffffffffffffffffffffffffffffffffffffff1681526020019081526020016000205461132c90919063ffffffff16565b610e7e565b6001905092915050565b600061063161062b610e76565b83611342565b60019050919050565b6000600660159054906101000a900460ff16905090565b6000600160008373ffffffffffffffffffffffffffffffffffffffff1673ffffffffffffffffffffffffffffffffffffffff168152602001908152602001600020549050919050565b6106a2610e76565b73ffffffffffffffffffffffffffffffffffffffff16600660019054906101000a900473ffffffffffffffffffffffffffffffffffffffff1673ffffffffffffffffffffffffffffffffffffffff1614610731576040517f08c379a000000000000000000000000000000000000000000000000000000000815260040161072890611cca565b60405180910390fd5b600073ffffffffffffffffffffffffffffffffffffffff16600660019054906101000a900473ffffffffffffffffffffffffffffffffffffffff1673ffffffffffffffffffffffffffffffffffffffff167f8be0079c531659141344cd1fd0a4f28419497f9722a3daafe3b4186f6b6457e060405160405180910390a36000600660016101000a81548173ffffffffffffffffffffffffffffffffffffffff021916908373ffffffffffffffffffffffffffffffffffffffff160217905550565b6000600660019054906101000a900473ffffffffffffffffffffffffffffffffffffffff16905090565b60606005805461082b90611f13565b80601f016020809104026020016040519081016040528092919081815260200182805461085790611f13565b80156108a45780601f10610879576101008083540402835291602001916108a4565b820191906000526020600020905b81548152906001019060200180831161088757829003601f168201915b5050505050905090565b60006108b8610e76565b73ffffffffffffffffffffffffffffffffffffffff16600660019054906101000a900473ffffffffffffffffffffffffffffffffffffffff1673ffffffffffffffffffffffffffffffffffffffff1614610947576040517f08c379a000000000000000000000000000000000000000000000000000000000815260040161093e90611cca565b60405180910390fd5b600660159054906101000a900460ff16610996576040517f08c379a000000000000000000000000000000000000000000000000000000000815260040161098d90611c2a565b60405180910390fd5b6109a76109a1610e76565b836114e6565b60019050919050565b6000610a736109bd610e76565b84610a6e8560405180606001604052806025815260200161237760259139600260006109e7610e76565b73ffffffffffffffffffffffffffffffffffffffff1673ffffffffffffffffffffffffffffffffffffffff16815260200190815260200160002060008a73ffffffffffffffffffffffffffffffffffffffff1673ffffffffffffffffffffffffffffffffffffffff168152602001908152602001600020546112d79092919063ffffffff16565b610e7e565b6001905092915050565b6000610a91610a8a610e76565b8484611049565b6001905092915050565b6000600260008473ffffffffffffffffffffffffffffffffffffffff1673ffffffffffffffffffffffffffffffffffffffff16815260200190815260200160002060008373ffffffffffffffffffffffffffffffffffffffff1673ffffffffffffffffffffffffffffffffffffffff16815260200190815260200160002054905092915050565b600060019054906101000a900460ff1680610b48575060008054906101000a900460ff16155b610b87576040517f08c379a0000000000000000000000000000000000000000000000000000000008152600401610b7e90611c8a565b60405180910390fd5b60008060019054906101000a900460ff161590508015610bd7576001600060016101000a81548160ff02191690831515021790555060016000806101000a81548160ff0219169083151502179055505b81600660016101000a81548173ffffffffffffffffffffffffffffffffffffffff021916908373ffffffffffffffffffffffffffffffffffffffff1602179055508660049080519060200190610c2e929190611686565b508560059080519060200190610c45929190611686565b5084600660006101000a81548160ff021916908360ff16021790555082600660156101000a81548160ff021916908315150217905550610c8582856114e6565b8015610ca65760008060016101000a81548160ff0219169083151502179055505b50505050505050565b610cb7610e76565b73ffffffffffffffffffffffffffffffffffffffff16600660019054906101000a900473ffffffffffffffffffffffffffffffffffffffff1673ffffffffffffffffffffffffffffffffffffffff1614610d46576040517f08c379a0000000000000000000000000000000000000000000000000000000008152600401610d3d90611cca565b60405180910390fd5b600073ffffffffffffffffffffffffffffffffffffffff168173ffffffffffffffffffffffffffffffffffffffff161415610db6576040517f08c379a0000000000000000000000000000000000000000000000000000000008152600401610dad90611c6a565b60405180910390fd5b8073ffffffffffffffffffffffffffffffffffffffff16600660019054906101000a900473ffffffffffffffffffffffffffffffffffffffff1673ffffffffffffffffffffffffffffffffffffffff167f8be0079c531659141344cd1fd0a4f28419497f9722a3daafe3b4186f6b6457e060405160405180910390a380600660016101000a81548173ffffffffffffffffffffffffffffffffffffffff021916908373ffffffffffffffffffffffffffffffffffffffff16021790555050565b600033905090565b600073ffffffffffffffffffffffffffffffffffffffff168373ffffffffffffffffffffffffffffffffffffffff161415610eee576040517f08c379a0000000000000000000000000000000000000000000000000000000008152600401610ee590611c4a565b60405180910390fd5b600073ffffffffffffffffffffffffffffffffffffffff168273ffffffffffffffffffffffffffffffffffffffff161415610f5e576040517f08c379a0000000000000000000000000000000000000000000000000000000008152600401610f5590611d2a565b60405180910390fd5b80600260008573ffffffffffffffffffffffffffffffffffffffff1673ffffffffffffffffffffffffffffffffffffffff16815260200190815260200160002060008473ffffffffffffffffffffffffffffffffffffffff1673ffffffffffffffffffffffffffffffffffffffff168152602001908152602001600020819055508173ffffffffffffffffffffffffffffffffffffffff168373ffffffffffffffffffffffffffffffffffffffff167f8c5be1e5ebec7d5bd14f71427d1e84f3dd0314c0f7b2291e5b200ac8c7c3b9258360405161103c9190611d4a565b60405180910390a3505050565b600073ffffffffffffffffffffffffffffffffffffffff168373ffffffffffffffffffffffffffffffffffffffff1614156110b9576040517f08c379a00000000000000000000000000000000000000000000000000000000081526004016110b090611c0a565b60405180910390fd5b600073ffffffffffffffffffffffffffffffffffffffff168273ffffffffffffffffffffffffffffffffffffffff161415611129576040517f08c379a000000000000000000000000000000000000000000000000000000000815260040161112090611cea565b60405180910390fd5b6111958160405180606001604052806026815260200161235160269139600160008773ffffffffffffffffffffffffffffffffffffffff1673ffffffffffffffffffffffffffffffffffffffff168152602001908152602001600020546112d79092919063ffffffff16565b600160008573ffffffffffffffffffffffffffffffffffffffff1673ffffffffffffffffffffffffffffffffffffffff1681526020019081526020016000208190555061122a81600160008573ffffffffffffffffffffffffffffffffffffffff1673ffffffffffffffffffffffffffffffffffffffff1681526020019081526020016000205461132c90919063ffffffff16565b600160008473ffffffffffffffffffffffffffffffffffffffff1673ffffffffffffffffffffffffffffffffffffffff168152602001908152602001600020819055508173ffffffffffffffffffffffffffffffffffffffff168373ffffffffffffffffffffffffffffffffffffffff167fddf252ad1be2c89b69c2b068fc378daa952ba7f163c4a11628f55a4df523b3ef836040516112ca9190611d4a565b60405180910390a3505050565b600083831115829061131f576040517f08c379a00000000000000000000000000000000000000000000000000000000081526004016113169190611be8565b60405180910390fd5b5082840390509392505050565b6000818361133a9190611df2565b905092915050565b600073ffffffffffffffffffffffffffffffffffffffff168273ffffffffffffffffffffffffffffffffffffffff1614156113b2576040517f08c379a00000000000000000000000000000000000000000000000000000000081526004016113a990611d0a565b60405180910390fd5b61141e8160405180606001604052806022815260200161239c60229139600160008673ffffffffffffffffffffffffffffffffffffffff1673ffffffffffffffffffffffffffffffffffffffff168152602001908152602001600020546112d79092919063ffffffff16565b600160008473ffffffffffffffffffffffffffffffffffffffff1673ffffffffffffffffffffffffffffffffffffffff168152602001908152602001600020819055506114768160035461167090919063ffffffff16565b600381905550600073ffffffffffffffffffffffffffffffffffffffff168273ffffffffffffffffffffffffffffffffffffffff167fddf252ad1be2c89b69c2b068fc378daa952ba7f163c4a11628f55a4df523b3ef836040516114da9190611d4a565b60405180910390a35050565b600073ffffffffffffffffffffffffffffffffffffffff168273ffffffffffffffffffffffffffffffffffffffff161415611556576040517f08c379a000000000000000000000000000000000000000000000000000000000815260040161154d90611caa565b60405180910390fd5b61156b8160035461132c90919063ffffffff16565b6003819055506115c381600160008573ffffffffffffffffffffffffffffffffffffffff1673ffffffffffffffffffffffffffffffffffffffff1681526020019081526020016000205461132c90919063ffffffff16565b600160008473ffffffffffffffffffffffffffffffffffffffff1673ffffffffffffffffffffffffffffffffffffffff168152602001908152602001600020819055508173ffffffffffffffffffffffffffffffffffffffff16600073ffffffffffffffffffffffffffffffffffffffff167fddf252ad1be2c89b69c2b068fc378daa952ba7f163c4a11628f55a4df523b3ef836040516116649190611d4a565b60405180910390a35050565b6000818361167e9190611e48565b905092915050565b82805461169290611f13565b90600052602060002090601f0160209004810192826116b457600085556116fb565b82601f106116cd57805160ff19168380011785556116fb565b828001600101855582156116fb579182015b828111156116fa5782518255916020019190600101906116df565b5b509050611708919061170c565b5090565b5b8082111561172557600081600090555060010161170d565b5090565b600061173c61173784611da5565b611d80565b90508281526020810184848401111561175857611757612008565b5b611763848285611ed1565b509392505050565b60008135905061177a816122cc565b92915050565b60008135905061178f816122e3565b92915050565b600082601f8301126117aa576117a9612003565b5b81356117ba848260208601611729565b91505092915050565b6000813590506117d2816122fa565b92915050565b6000813590506117e781612311565b92915050565b60006020828403121561180357611802612012565b5b60006118118482850161176b565b91505092915050565b6000806040838503121561183157611830612012565b5b600061183f8582860161176b565b92505060206118508582860161176b565b9150509250929050565b60008060006060848603121561187357611872612012565b5b60006118818682870161176b565b93505060206118928682870161176b565b92505060406118a3868287016117c3565b9150509250925092565b600080604083850312156118c4576118c3612012565b5b60006118d28582860161176b565b92505060206118e3858286016117c3565b9150509250929050565b60008060008060008060c0878903121561190a57611909612012565b5b600087013567ffffffffffffffff8111156119285761192761200d565b5b61193489828a01611795565b965050602087013567ffffffffffffffff8111156119555761195461200d565b5b61196189828a01611795565b955050604061197289828a016117d8565b945050606061198389828a016117c3565b935050608061199489828a01611780565b92505060a06119a589828a0161176b565b9150509295509295509295565b6000602082840312156119c8576119c7612012565b5b60006119d6848285016117c3565b91505092915050565b6119e881611e7c565b82525050565b6119f781611e8e565b82525050565b6000611a0882611dd6565b611a128185611de1565b9350611a22818560208601611ee0565b611a2b81612017565b840191505092915050565b6000611a43602583611de1565b9150611a4e82612028565b604082019050919050565b6000611a66601a83611de1565b9150611a7182612077565b602082019050919050565b6000611a89602483611de1565b9150611a94826120a0565b604082019050919050565b6000611aac602683611de1565b9150611ab7826120ef565b604082019050919050565b6000611acf602e83611de1565b9150611ada8261213e565b604082019050919050565b6000611af2601f83611de1565b9150611afd8261218d565b602082019050919050565b6000611b15602083611de1565b9150611b20826121b6565b602082019050919050565b6000611b38602383611de1565b9150611b43826121df565b604082019050919050565b6000611b5b602183611de1565b9150611b668261222e565b604082019050919050565b6000611b7e602283611de1565b9150611b898261227d565b604082019050919050565b611b9d81611eba565b82525050565b611bac81611ec4565b82525050565b6000602082019050611bc760008301846119df565b92915050565b6000602082019050611be260008301846119ee565b92915050565b60006020820190508181036000830152611c0281846119fd565b905092915050565b60006020820190508181036000830152611c2381611a36565b9050919050565b60006020820190508181036000830152611c4381611a59565b9050919050565b60006020820190508181036000830152611c6381611a7c565b9050919050565b60006020820190508181036000830152611c8381611a9f565b9050919050565b60006020820190508181036000830152611ca381611ac2565b9050919050565b60006020820190508181036000830152611cc381611ae5565b9050919050565b60006020820190508181036000830152611ce381611b08565b9050919050565b60006020820190508181036000830152611d0381611b2b565b9050919050565b60006020820190508181036000830152611d2381611b4e565b9050919050565b60006020820190508181036000830152611d4381611b71565b9050919050565b6000602082019050611d5f6000830184611b94565b92915050565b6000602082019050611d7a6000830184611ba3565b92915050565b6000611d8a611d9b565b9050611d968282611f45565b919050565b6000604051905090565b600067ffffffffffffffff821115611dc057611dbf611fd4565b5b611dc982612017565b9050602081019050919050565b600081519050919050565b600082825260208201905092915050565b6000611dfd82611eba565b9150611e0883611eba565b9250827fffffffffffffffffffffffffffffffffffffffffffffffffffffffffffffffff03821115611e3d57611e3c611f76565b5b828201905092915050565b6000611e5382611eba565b9150611e5e83611eba565b925082821015611e7157611e70611f76565b5b828203905092915050565b6000611e8782611e9a565b9050919050565b60008115159050919050565b600073ffffffffffffffffffffffffffffffffffffffff82169050919050565b6000819050919050565b600060ff82169050919050565b82818337600083830152505050565b60005b83811015611efe578082015181840152602081019050611ee3565b83811115611f0d576000848401525b50505050565b60006002820490506001821680611f2b57607f821691505b60208210811415611f3f57611f3e611fa5565b5b50919050565b611f4e82612017565b810181811067ffffffffffffffff82111715611f6d57611f6c611fd4565b5b80604052505050565b7f4e487b7100000000000000000000000000000000000000000000000000000000600052601160045260246000fd5b7f4e487b7100000000000000000000000000000000000000000000000000000000600052602260045260246000fd5b7f4e487b7100000000000000000000000000000000000000000000000000000000600052604160045260246000fd5b600080fd5b600080fd5b600080fd5b600080fd5b6000601f19601f8301169050919050565b7f42455032303a207472616e736665722066726f6d20746865207a65726f20616460008201527f6472657373000000000000000000000000000000000000000000000000000000602082015250565b7f7468697320746f6b656e206973206e6f74206d696e7461626c65000000000000600082015250565b7f42455032303a20617070726f76652066726f6d20746865207a65726f2061646460008201527f7265737300000000000000000000000000000000000000000000000000000000602082015250565b7f4f776e61626c653a206e6577206f776e657220697320746865207a65726f206160008201527f6464726573730000000000000000000000000000000000000000000000000000602082015250565b7f496e697469616c697a61626c653a20636f6e747261637420697320616c72656160008201527f647920696e697469616c697a6564000000000000000000000000000000000000602082015250565b7f42455032303a206d696e7420746f20746865207a65726f206164647265737300600082015250565b7f4f776e61626c653a2063616c6c6572206973206e6f7420746865206f776e6572600082015250565b7f42455032303a207472616e7366657220746f20746865207a65726f206164647260008201527f6573730000000000000000000000000000000000000000000000000000000000602082015250565b7f42455032303a206275726e2066726f6d20746865207a65726f2061646472657360008201527f7300000000000000000000000000000000000000000000000000000000000000602082015250565b7f42455032303a20617070726f766520746f20746865207a65726f20616464726560008201527f7373000000000000000000000000000000000000000000000000000000000000602082015250565b6122d581611e7c565b81146122e057600080fd5b50565b6122ec81611e8e565b81146122f757600080fd5b50565b61230381611eba565b811461230e57600080fd5b50565b61231a81611ec4565b811461232557600080fd5b5056fe42455032303a207472616e7366657220616d6f756e74206578636565647320616c6c6f77616e636542455032303a207472616e7366657220616d6f756e7420657863656564732062616c616e636542455032303a2064656372656173656420616c6c6f77616e63652062656c6f77207a65726f42455032303a206275726e20616d6f756e7420657863656564732062616c616e6365a2646970667358221220807f78dfda0637f0b2c377028a4e0871c63a7eb140bbd5c0ef206299b62f46cd64736f6c63430008070033",
  "linkReferences": {},
  "deployedLinkReferences": {}
}