{
  "_format": "hh-sol-artifact-1",
  "contractName": "BEP20TokenFactory",
  "sourceName": "contracts/BEP20TokenFactory.sol",
  "abi": [
    {
      "inputs": [
        {
          "internalType": "address",
          "name": "_logicImplement",
          "type": "address"
        }
      ],
      "stateMutability": "nonpayable",
      "type": "constructor"
    },
    {
      "anonymous": false,
      "inputs": [
        {
          "indexed": true,
          "internalType": "address",
          "name": "previousOwner",
          "type": "address"
        },
        {
          "indexed": true,
          "internalType": "address",
          "name": "newOwner",
          "type": "address"
        }
      ],
      "name": "OwnershipTransferred",
      "type": "event"
    },
    {
      "anonymous": false,
      "inputs": [
        {
          "indexed": true,
          "internalType": "address",
          "name": "token",
          "type": "address"
        }
      ],
      "name": "TokenCreated",
      "type": "event"
    },
    {
      "inputs": [
        {
          "internalType": "string",
          "name": "name",
          "type": "string"
        },
        {
          "internalType": "string",
          "name": "symbol",
          "type": "string"
        },
        {
          "internalType": "uint8",
          "name": "decimals",
          "type": "uint8"
        },
        {
          "internalType": "uint256",
          "name": "amount",
          "type": "uint256"
        },
        {
          "internalType": "bool",
          "name": "mintable",
          "type": "bool"
        },
        {
          "internalType": "address",
          "name": "bep20Owner",
          "type": "address"
        },
        {
          "internalType": "address",
          "name": "proxyAdmin",
          "type": "address"
        }
      ],
      "name": "createBEP20Token",
      "outputs": [
        {
          "internalType": "address",
          "name": "",
          "type": "address"
        }
      ],
      "stateMutability": "nonpayable",
      "type": "function"
    },
    {
      "inputs": [],
      "name": "logicImplement",
      "outputs": [
        {
          "internalType": "address",
          "name": "",
          "type": "address"
        }
      ],
      "stateMutability": "view",
      "type": "function"
    },
    {
      "inputs": [],
      "name": "owner",
      "outputs": [
        {
          "internalType": "address",
          "name": "",
          "type": "address"
        }
      ],
      "stateMutability": "view",
      "type": "function"
    },
    {
      "inputs": [],
      "name": "renounceOwnership",
      "outputs": [],
      "stateMutability": "nonpayable",
      "type": "function"
    },
    {
      "inputs": [
        {
          "internalType": "address",
          "name": "newOwner",
          "type": "address"
        }
      ],
      "name": "transferOwnership",
      "outputs": [],
      "stateMutability": "nonpayable",
      "type": "function"
    }
  ],
  "bytecode": "0x608060405234801561001057600080fd5b50604051620027b7380380620027b783398181016040528101906100349190610178565b61005061004561009760201b60201c565b61009f60201b60201c565b80600160006101000a81548173ffffffffffffffffffffffffffffffffffffffff021916908373ffffffffffffffffffffffffffffffffffffffff160217905550506101f3565b600033905090565b60008060009054906101000a900473ffffffffffffffffffffffffffffffffffffffff169050816000806101000a81548173ffffffffffffffffffffffffffffffffffffffff021916908373ffffffffffffffffffffffffffffffffffffffff1602179055508173ffffffffffffffffffffffffffffffffffffffff168173ffffffffffffffffffffffffffffffffffffffff167f8be0079c531659141344cd1fd0a4f28419497f9722a3daafe3b4186f6b6457e060405160405180910390a35050565b600081519050610172816101dc565b92915050565b60006020828403121561018e5761018d6101d7565b5b600061019c84828501610163565b91505092915050565b60006101b0826101b7565b9050919050565b600073ffffffffffffffffffffffffffffffffffffffff82169050919050565b600080fd5b6101e5816101a5565b81146101f057600080fd5b50565b6125b480620002036000396000f3fe60806040523480156200001157600080fd5b50600436106200005e5760003560e01c806357a2fe931462000063578063715018a614620000855780638da5cb5b1462000091578063f2fde38b14620000b3578063f3b74ac514620000d3575b600080fd5b6200006d62000109565b6040516200007c919062000856565b60405180910390f35b6200008f6200012f565b005b6200009b620001c0565b604051620000aa919062000856565b60405180910390f35b620000d16004803603810190620000cb91906200063f565b620001e9565b005b620000f16004803603810190620000eb919062000671565b620002ed565b60405162000100919062000856565b60405180910390f35b600160009054906101000a900473ffffffffffffffffffffffffffffffffffffffff1681565b62000139620004aa565b73ffffffffffffffffffffffffffffffffffffffff1662000159620001c0565b73ffffffffffffffffffffffffffffffffffffffff1614620001b2576040517f08c379a0000000000000000000000000000000000000000000000000000000008152600401620001a99062000956565b60405180910390fd5b620001be6000620004b2565b565b60008060009054906101000a900473ffffffffffffffffffffffffffffffffffffffff16905090565b620001f3620004aa565b73ffffffffffffffffffffffffffffffffffffffff1662000213620001c0565b73ffffffffffffffffffffffffffffffffffffffff16146200026c576040517f08c379a0000000000000000000000000000000000000000000000000000000008152600401620002639062000956565b60405180910390fd5b600073ffffffffffffffffffffffffffffffffffffffff168173ffffffffffffffffffffffffffffffffffffffff161415620002df576040517f08c379a0000000000000000000000000000000000000000000000000000000008152600401620002d69062000934565b60405180910390fd5b620002ea81620004b2565b50565b6000620002f9620004aa565b73ffffffffffffffffffffffffffffffffffffffff1662000319620001c0565b73ffffffffffffffffffffffffffffffffffffffff161462000372576040517f08c379a0000000000000000000000000000000000000000000000000000000008152600401620003699062000956565b60405180910390fd5b6000600160009054906101000a900473ffffffffffffffffffffffffffffffffffffffff1683604051620003a69062000576565b620003b392919062000873565b604051809103906000f080158015620003d0573d6000803e3d6000fd5b50905060008190508073ffffffffffffffffffffffffffffffffffffffff1663ef3ebcb88d8d8d8d8d8d8d8d6040518963ffffffff1660e01b815260040162000421989796959493929190620008b5565b600060405180830381600087803b1580156200043c57600080fd5b505af115801562000451573d6000803e3d6000fd5b505050508073ffffffffffffffffffffffffffffffffffffffff167f2e2b3f61b70d2d131b2a807371103cc98d51adcaa5e9a8f9c32658ad8426e74e60405160405180910390a280925050509998505050505050505050565b600033905090565b60008060009054906101000a900473ffffffffffffffffffffffffffffffffffffffff169050816000806101000a81548173ffffffffffffffffffffffffffffffffffffffff021916908373ffffffffffffffffffffffffffffffffffffffff1602179055508173ffffffffffffffffffffffffffffffffffffffff168173ffffffffffffffffffffffffffffffffffffffff167f8be0079c531659141344cd1fd0a4f28419497f9722a3daafe3b4186f6b6457e060405160405180910390a35050565b611a718062000b0e83390190565b600081359050620005958162000aa5565b92915050565b600081359050620005ac8162000abf565b92915050565b60008083601f840112620005cb57620005ca62000a05565b5b8235905067ffffffffffffffff811115620005eb57620005ea62000a00565b5b6020830191508360018202830111156200060a576200060962000a0a565b5b9250929050565b600081359050620006228162000ad9565b92915050565b600081359050620006398162000af3565b92915050565b60006020828403121562000658576200065762000a14565b5b6000620006688482850162000584565b91505092915050565b600080600080600080600080600060e08a8c03121562000696576200069562000a14565b5b60008a013567ffffffffffffffff811115620006b757620006b662000a0f565b5b620006c58c828d01620005b2565b995099505060208a013567ffffffffffffffff811115620006eb57620006ea62000a0f565b5b620006f98c828d01620005b2565b975097505060406200070e8c828d0162000628565b9550506060620007218c828d0162000611565b9450506080620007348c828d016200059b565b93505060a0620007478c828d0162000584565b92505060c06200075a8c828d0162000584565b9150509295985092959850929598565b62000775816200099a565b82525050565b6200078681620009ae565b82525050565b60006200079a838562000989565b9350620007a9838584620009f1565b620007b48362000a19565b840190509392505050565b6000620007ce60268362000989565b9150620007db8262000a2a565b604082019050919050565b6000620007f560208362000989565b9150620008028262000a79565b602082019050919050565b60006200081c60008362000978565b9150620008298262000aa2565b600082019050919050565b6200083f81620009da565b82525050565b6200085081620009e4565b82525050565b60006020820190506200086d60008301846200076a565b92915050565b60006060820190506200088a60008301856200076a565b6200089960208301846200076a565b8181036040830152620008ac816200080d565b90509392505050565b600060c0820190508181036000830152620008d2818a8c6200078c565b90508181036020830152620008e981888a6200078c565b9050620008fa604083018762000845565b62000909606083018662000834565b6200091860808301856200077b565b6200092760a08301846200076a565b9998505050505050505050565b600060208201905081810360008301526200094f81620007bf565b9050919050565b600060208201905081810360008301526200097181620007e6565b9050919050565b600082825260208201905092915050565b600082825260208201905092915050565b6000620009a782620009ba565b9050919050565b60008115159050919050565b600073ffffffffffffffffffffffffffffffffffffffff82169050919050565b6000819050919050565b600060ff82169050919050565b82818337600083830152505050565b600080fd5b600080fd5b600080fd5b600080fd5b600080fd5b6000601f19601f8301169050919050565b7f4f776e61626c653a206e6577206f776e657220697320746865207a65726f206160008201527f6464726573730000000000000000000000000000000000000000000000000000602082015250565b7f4f776e61626c653a2063616c6c6572206973206e6f7420746865206f776e6572600082015250565b50565b62000ab0816200099a565b811462000abc57600080fd5b50565b62000aca81620009ae565b811462000ad657600080fd5b50565b62000ae481620009da565b811462000af057600080fd5b50565b62000afe81620009e4565b811462000b0a57600080fd5b5056fe60806040523480156200001157600080fd5b5060405162001a7138038062001a7183398181016040528101906200003791906200069e565b828282828160017f360894a13ba1a3210667c828492db98dca3e2076cc3735a920a3ca505d382bbd60001c6200006e919062000978565b60001b7f360894a13ba1a3210667c828492db98dca3e2076cc3735a920a3ca505d382bbc60001b14620000a657620000a562000a5d565b5b620000ba828260006200014360201b60201c565b505060017fb53127684a568b3173ae13b9f8a6016e243e63b6e8ee1178d6a717850b5d610460001c620000ee919062000978565b60001b7fb53127684a568b3173ae13b9f8a6016e243e63b6e8ee1178d6a717850b5d610360001b1462000126576200012562000a5d565b5b62000137826200018660201b60201c565b50505050505062000c16565b6200015483620001e460201b60201c565b600082511180620001625750805b1562000181576200017f83836200023b60201b6200034f1760201c565b505b505050565b7f7e644d79422f17c01e4894b5f4f588d331ebfa28653d42ae832dc59e38c9798f620001b76200027160201b60201c565b82604051620001c892919062000830565b60405180910390a1620001e181620002d560201b60201c565b50565b620001f581620003c660201b60201c565b8073ffffffffffffffffffffffffffffffffffffffff167fbc7cd75a20ee27fd9adebab32041f755214dbc6bffa90cc0225b39da2e5c2d3b60405160405180910390a250565b606062000269838360405180606001604052806027815260200162001a4a602791396200049c60201b60201c565b905092915050565b6000620002ac7fb53127684a568b3173ae13b9f8a6016e243e63b6e8ee1178d6a717850b5d610360001b6200058060201b6200037c1760201c565b60000160009054906101000a900473ffffffffffffffffffffffffffffffffffffffff16905090565b600073ffffffffffffffffffffffffffffffffffffffff168173ffffffffffffffffffffffffffffffffffffffff16141562000348576040517f08c379a00000000000000000000000000000000000000000000000000000000081526004016200033f9062000881565b60405180910390fd5b80620003827fb53127684a568b3173ae13b9f8a6016e243e63b6e8ee1178d6a717850b5d610360001b6200058060201b6200037c1760201c565b60000160006101000a81548173ffffffffffffffffffffffffffffffffffffffff021916908373ffffffffffffffffffffffffffffffffffffffff16021790555050565b620003dc816200058a60201b620003861760201c565b6200041e576040517f08c379a00000000000000000000000000000000000000000000000000000000081526004016200041590620008a3565b60405180910390fd5b80620004587f360894a13ba1a3210667c828492db98dca3e2076cc3735a920a3ca505d382bbc60001b6200058060201b6200037c1760201c565b60000160006101000a81548173ffffffffffffffffffffffffffffffffffffffff021916908373ffffffffffffffffffffffffffffffffffffffff16021790555050565b6060620004af846200058a60201b60201c565b620004f1576040517f08c379a0000000000000000000000000000000000000000000000000000000008152600401620004e890620008c5565b60405180910390fd5b6000808573ffffffffffffffffffffffffffffffffffffffff16856040516200051b919062000817565b600060405180830381855af49150503d806000811462000558576040519150601f19603f3d011682016040523d82523d6000602084013e6200055d565b606091505b5091509150620005758282866200059d60201b60201c565b925050509392505050565b6000819050919050565b600080823b905060008111915050919050565b60608315620005af5782905062000602565b600083511115620005c35782518084602001fd5b816040517f08c379a0000000000000000000000000000000000000000000000000000000008152600401620005f991906200085d565b60405180910390fd5b9392505050565b6000620006206200061a8462000910565b620008e7565b9050828152602081018484840111156200063f576200063e62000aef565b5b6200064c848285620009f1565b509392505050565b600081519050620006658162000bfc565b92915050565b600082601f83011262000683576200068262000aea565b5b81516200069584826020860162000609565b91505092915050565b600080600060608486031215620006ba57620006b962000af9565b5b6000620006ca8682870162000654565b9350506020620006dd8682870162000654565b925050604084015167ffffffffffffffff81111562000701576200070062000af4565b5b6200070f868287016200066b565b9150509250925092565b6200072481620009b3565b82525050565b6000620007378262000946565b6200074381856200095c565b935062000755818560208601620009f1565b80840191505092915050565b60006200076e8262000951565b6200077a818562000967565b93506200078c818560208601620009f1565b620007978162000afe565b840191505092915050565b6000620007b160268362000967565b9150620007be8262000b0f565b604082019050919050565b6000620007d8602d8362000967565b9150620007e58262000b5e565b604082019050919050565b6000620007ff60268362000967565b91506200080c8262000bad565b604082019050919050565b60006200082582846200072a565b915081905092915050565b600060408201905062000847600083018562000719565b62000856602083018462000719565b9392505050565b6000602082019050818103600083015262000879818462000761565b905092915050565b600060208201905081810360008301526200089c81620007a2565b9050919050565b60006020820190508181036000830152620008be81620007c9565b9050919050565b60006020820190508181036000830152620008e081620007f0565b9050919050565b6000620008f362000906565b905062000901828262000a27565b919050565b6000604051905090565b600067ffffffffffffffff8211156200092e576200092d62000abb565b5b620009398262000afe565b9050602081019050919050565b600081519050919050565b600081519050919050565b600081905092915050565b600082825260208201905092915050565b60006200098582620009e7565b91506200099283620009e7565b925082821015620009a857620009a762000a8c565b5b828203905092915050565b6000620009c082620009c7565b9050919050565b600073ffffffffffffffffffffffffffffffffffffffff82169050919050565b6000819050919050565b60005b8381101562000a11578082015181840152602081019050620009f4565b8381111562000a21576000848401525b50505050565b62000a328262000afe565b810181811067ffffffffffffffff8211171562000a545762000a5362000abb565b5b80604052505050565b7f4e487b7100000000000000000000000000000000000000000000000000000000600052600160045260246000fd5b7f4e487b7100000000000000000000000000000000000000000000000000000000600052601160045260246000fd5b7f4e487b7100000000000000000000000000000000000000000000000000000000600052604160045260246000fd5b600080fd5b600080fd5b600080fd5b600080fd5b6000601f19601f8301169050919050565b7f455243313936373a206e65772061646d696e20697320746865207a65726f206160008201527f6464726573730000000000000000000000000000000000000000000000000000602082015250565b7f455243313936373a206e657720696d706c656d656e746174696f6e206973206e60008201527f6f74206120636f6e747261637400000000000000000000000000000000000000602082015250565b7f416464726573733a2064656c65676174652063616c6c20746f206e6f6e2d636f60008201527f6e74726163740000000000000000000000000000000000000000000000000000602082015250565b62000c0781620009b3565b811462000c1357600080fd5b50565b610e248062000c266000396000f3fe60806040526004361061004e5760003560e01c80633659cfe6146100675780634f1ef286146100905780635c60da1b146100ac5780638f283970146100d7578063f851a440146101005761005d565b3661005d5761005b61012b565b005b61006561012b565b005b34801561007357600080fd5b5061008e600480360381019061008991906108fe565b610145565b005b6100aa60048036038101906100a5919061092b565b6101ac565b005b3480156100b857600080fd5b506100c161024a565b6040516100ce9190610aa7565b60405180910390f35b3480156100e357600080fd5b506100fe60048036038101906100f991906108fe565b6102a2565b005b34801561010c57600080fd5b506101156102f7565b6040516101229190610aa7565b60405180910390f35b610133610399565b61014361013e610419565b610428565b565b61014d61044e565b73ffffffffffffffffffffffffffffffffffffffff163373ffffffffffffffffffffffffffffffffffffffff1614156101a05761019b816040518060200160405280600081525060006104a5565b6101a9565b6101a861012b565b5b50565b6101b461044e565b73ffffffffffffffffffffffffffffffffffffffff163373ffffffffffffffffffffffffffffffffffffffff16141561023c576102378383838080601f016020809104026020016040519081016040528093929190818152602001838380828437600081840152601f19601f8201169050808301925050505050505060016104a5565b610245565b61024461012b565b5b505050565b600061025461044e565b73ffffffffffffffffffffffffffffffffffffffff163373ffffffffffffffffffffffffffffffffffffffff1614156102965761028f610419565b905061029f565b61029e61012b565b5b90565b6102aa61044e565b73ffffffffffffffffffffffffffffffffffffffff163373ffffffffffffffffffffffffffffffffffffffff1614156102eb576102e6816104d1565b6102f4565b6102f361012b565b5b50565b600061030161044e565b73ffffffffffffffffffffffffffffffffffffffff163373ffffffffffffffffffffffffffffffffffffffff1614156103435761033c61044e565b905061034c565b61034b61012b565b5b90565b60606103748383604051806060016040528060278152602001610dc86027913961051d565b905092915050565b6000819050919050565b600080823b905060008111915050919050565b6103a161044e565b73ffffffffffffffffffffffffffffffffffffffff163373ffffffffffffffffffffffffffffffffffffffff16141561040f576040517f08c379a000000000000000000000000000000000000000000000000000000000815260040161040690610b6d565b60405180910390fd5b6104176105ea565b565b60006104236105ec565b905090565b3660008037600080366000845af43d6000803e8060008114610449573d6000f35b3d6000fd5b600061047c7fb53127684a568b3173ae13b9f8a6016e243e63b6e8ee1178d6a717850b5d610360001b61037c565b60000160009054906101000a900473ffffffffffffffffffffffffffffffffffffffff16905090565b6104ae83610643565b6000825111806104bb5750805b156104cc576104ca838361034f565b505b505050565b7f7e644d79422f17c01e4894b5f4f588d331ebfa28653d42ae832dc59e38c9798f6104fa61044e565b82604051610509929190610ac2565b60405180910390a161051a81610692565b50565b606061052884610386565b610567576040517f08c379a000000000000000000000000000000000000000000000000000000000815260040161055e90610b4d565b60405180910390fd5b6000808573ffffffffffffffffffffffffffffffffffffffff168560405161058f9190610a90565b600060405180830381855af49150503d80600081146105ca576040519150601f19603f3d011682016040523d82523d6000602084013e6105cf565b606091505b50915091506105df828286610773565b925050509392505050565b565b600061061a7f360894a13ba1a3210667c828492db98dca3e2076cc3735a920a3ca505d382bbc60001b61037c565b60000160009054906101000a900473ffffffffffffffffffffffffffffffffffffffff16905090565b61064c816107da565b8073ffffffffffffffffffffffffffffffffffffffff167fbc7cd75a20ee27fd9adebab32041f755214dbc6bffa90cc0225b39da2e5c2d3b60405160405180910390a250565b600073ffffffffffffffffffffffffffffffffffffffff168173ffffffffffffffffffffffffffffffffffffffff161415610702576040517f08c379a00000000000000000000000000000000000000000000000000000000081526004016106f990610b0d565b60405180910390fd5b8061072f7fb53127684a568b3173ae13b9f8a6016e243e63b6e8ee1178d6a717850b5d610360001b61037c565b60000160006101000a81548173ffffffffffffffffffffffffffffffffffffffff021916908373ffffffffffffffffffffffffffffffffffffffff16021790555050565b60608315610783578290506107d3565b6000835111156107965782518084602001fd5b816040517f08c379a00000000000000000000000000000000000000000000000000000000081526004016107ca9190610aeb565b60405180910390fd5b9392505050565b6107e381610386565b610822576040517f08c379a000000000000000000000000000000000000000000000000000000000815260040161081990610b2d565b60405180910390fd5b8061084f7f360894a13ba1a3210667c828492db98dca3e2076cc3735a920a3ca505d382bbc60001b61037c565b60000160006101000a81548173ffffffffffffffffffffffffffffffffffffffff021916908373ffffffffffffffffffffffffffffffffffffffff16021790555050565b6000813590506108a281610db0565b92915050565b60008083601f8401126108be576108bd610c29565b5b8235905067ffffffffffffffff8111156108db576108da610c24565b5b6020830191508360018202830111156108f7576108f6610c2e565b5b9250929050565b60006020828403121561091457610913610c38565b5b600061092284828501610893565b91505092915050565b60008060006040848603121561094457610943610c38565b5b600061095286828701610893565b935050602084013567ffffffffffffffff81111561097357610972610c33565b5b61097f868287016108a8565b92509250509250925092565b61099481610bbf565b82525050565b60006109a582610b8d565b6109af8185610ba3565b93506109bf818560208601610bf1565b80840191505092915050565b60006109d682610b98565b6109e08185610bae565b93506109f0818560208601610bf1565b6109f981610c3d565b840191505092915050565b6000610a11602683610bae565b9150610a1c82610c4e565b604082019050919050565b6000610a34602d83610bae565b9150610a3f82610c9d565b604082019050919050565b6000610a57602683610bae565b9150610a6282610cec565b604082019050919050565b6000610a7a604283610bae565b9150610a8582610d3b565b606082019050919050565b6000610a9c828461099a565b915081905092915050565b6000602082019050610abc600083018461098b565b92915050565b6000604082019050610ad7600083018561098b565b610ae4602083018461098b565b9392505050565b60006020820190508181036000830152610b0581846109cb565b905092915050565b60006020820190508181036000830152610b2681610a04565b9050919050565b60006020820190508181036000830152610b4681610a27565b9050919050565b60006020820190508181036000830152610b6681610a4a565b9050919050565b60006020820190508181036000830152610b8681610a6d565b9050919050565b600081519050919050565b600081519050919050565b600081905092915050565b600082825260208201905092915050565b6000610bca82610bd1565b9050919050565b600073ffffffffffffffffffffffffffffffffffffffff82169050919050565b60005b83811015610c0f578082015181840152602081019050610bf4565b83811115610c1e576000848401525b50505050565b600080fd5b600080fd5b600080fd5b600080fd5b600080fd5b6000601f19601f8301169050919050565b7f455243313936373a206e65772061646d696e20697320746865207a65726f206160008201527f6464726573730000000000000000000000000000000000000000000000000000602082015250565b7f455243313936373a206e657720696d706c656d656e746174696f6e206973206e60008201527f6f74206120636f6e747261637400000000000000000000000000000000000000602082015250565b7f416464726573733a2064656c65676174652063616c6c20746f206e6f6e2d636f60008201527f6e74726163740000000000000000000000000000000000000000000000000000602082015250565b7f5472616e73706172656e745570677261646561626c6550726f78793a2061646d60008201527f696e2063616e6e6f742066616c6c6261636b20746f2070726f7879207461726760208201527f6574000000000000000000000000000000000000000000000000000000000000604082015250565b610db981610bbf565b8114610dc457600080fd5b5056fe416464726573733a206c6f772d6c6576656c2064656c65676174652063616c6c206661696c6564a26469706673582212206f03280b756c6f42f17bb263899a6a3a3244b4eca0419fb166d1228c2576a25c64736f6c63430008070033416464726573733a206c6f772d6c6576656c2064656c65676174652063616c6c206661696c6564a26469706673582212206051e75c69eac7d0f8ef23f6bdc8414d770d263fa2a2e6c9a0c8f9996c2b619c64736f6c63430008070033",
  "linkReferences": {},
  "deployedLinkReferences": {}
}