{
  "contractName": "ApproveAndCallFallBackTest",
  "abi": [
    {
      "anonymous": false,
      "inputs": [
        {
          "indexed": false,
          "internalType": "address",
          "name": "from",
          "type": "address"
        },
        {
          "indexed": false,
          "internalType": "uint256",
          "name": "_amount",
          "type": "uint256"
        },
        {
          "indexed": false,
          "internalType": "address",
          "name": "_token",
          "type": "address"
        }
      ],
      "name": "LogTestReceiveApproval",
      "type": "event"
    },
    {
      "inputs": [
        {
          "internalType": "address",
          "name": "_from",
          "type": "address"
        },
        {
          "internalType": "uint256",
          "name": "_amount",
          "type": "uint256"
        },
        {
          "internalType": "bytes",
          "name": "",
          "type": "bytes"
        }
      ],
      "name": "receiveApproval",
      "outputs": [],
      "stateMutability": "nonpayable",
      "type": "function"
    }
  ],
  "bytecode": "0x608060405234801561001057600080fd5b5061015e806100206000396000f3fe608060405234801561001057600080fd5b506004361061002b5760003560e01c8063a2d5785314610030575b600080fd5b61004361003e366004610093565b610045565b005b604080516001600160a01b038616815260208101859052338183015290517f33820c240b9f71ee68c319fbca7658044db9961994df422750c27f715953efbe9181900360600190a150505050565b600080600080606085870312156100a957600080fd5b84356001600160a01b03811681146100c057600080fd5b935060208501359250604085013567ffffffffffffffff808211156100e457600080fd5b818701915087601f8301126100f857600080fd5b81358181111561010757600080fd5b88602082850101111561011957600080fd5b9598949750506020019450505056fea26469706673582212208328482007ca0e0b347d0f92709158e69d1af473b874e581f12155827220e42764736f6c63430008070033",
  "immutableReferences": {},
  "source": "pragma solidity ^0.8.7;\n\nimport \"../interface/ApproveAndCallFallBack.sol\";\n\ncontract ApproveAndCallFallBackTest is ApproveAndCallFallBack {\n    event LogTestReceiveApproval(address from, uint256 _amount, address _token);\n\n    function receiveApproval(address _from, uint256 _amount, bytes calldata /* _data */) override external {\n        emit LogTestReceiveApproval(_from, _amount, msg.sender);\n    }\n}",
  "sourcePath": "C:\\Users\\tim\\Projects\\GitHub\\sata-contracts-bsc-v1\\contracts\\test\\BEP20ApproveAndCallTest.sol",
  "compiler": {
    "name": "solc",
    "version": "0.8.7+commit.e28d00a7.Emscripten.clang"
  },
  "schemaVersion": "3.4.3",
  "updatedAt": "2021-09-19T10:32:30.509Z",
  "devdoc": {
    "kind": "dev",
    "methods": {},
    "version": 1
  },
  "userdoc": {
    "kind": "user",
    "methods": {},
    "version": 1
  }
}