{
  "contractName": "BEP20TokenFactory",
  "abi": [
    {
      "inputs": [
        {
          "internalType": "address",
          "name": "_logicImplement",
          "type": "address"
        }
      ],
      "stateMutability": "nonpayable",
      "type": "constructor"
    },
    {
      "anonymous": false,
      "inputs": [
        {
          "indexed": true,
          "internalType": "address",
          "name": "previousOwner",
          "type": "address"
        },
        {
          "indexed": true,
          "internalType": "address",
          "name": "newOwner",
          "type": "address"
        }
      ],
      "name": "OwnershipTransferred",
      "type": "event"
    },
    {
      "anonymous": false,
      "inputs": [
        {
          "indexed": true,
          "internalType": "address",
          "name": "token",
          "type": "address"
        }
      ],
      "name": "TokenCreated",
      "type": "event"
    },
    {
      "inputs": [],
      "name": "logicImplement",
      "outputs": [
        {
          "internalType": "address",
          "name": "",
          "type": "address"
        }
      ],
      "stateMutability": "view",
      "type": "function"
    },
    {
      "inputs": [],
      "name": "owner",
      "outputs": [
        {
          "internalType": "address",
          "name": "",
          "type": "address"
        }
      ],
      "stateMutability": "view",
      "type": "function"
    },
    {
      "inputs": [],
      "name": "renounceOwnership",
      "outputs": [],
      "stateMutability": "nonpayable",
      "type": "function"
    },
    {
      "inputs": [
        {
          "internalType": "address",
          "name": "newOwner",
          "type": "address"
        }
      ],
      "name": "transferOwnership",
      "outputs": [],
      "stateMutability": "nonpayable",
      "type": "function"
    },
    {
      "inputs": [
        {
          "internalType": "string",
          "name": "name",
          "type": "string"
        },
        {
          "internalType": "string",
          "name": "symbol",
          "type": "string"
        },
        {
          "internalType": "uint8",
          "name": "decimals",
          "type": "uint8"
        },
        {
          "internalType": "uint256",
          "name": "amount",
          "type": "uint256"
        },
        {
          "internalType": "bool",
          "name": "mintable",
          "type": "bool"
        },
        {
          "internalType": "address",
          "name": "bep20Owner",
          "type": "address"
        },
        {
          "internalType": "address",
          "name": "proxyAdmin",
          "type": "address"
        }
      ],
      "name": "createBEP20Token",
      "outputs": [
        {
          "internalType": "address",
          "name": "",
          "type": "address"
        }
      ],
      "stateMutability": "nonpayable",
      "type": "function"
    }
  ],
  "bytecode": "0x608060405234801561001057600080fd5b506040516115fd3803806115fd83398101604081905261002f916100ad565b6100383361005d565b600180546001600160a01b0319166001600160a01b03929092169190911790556100dd565b600080546001600160a01b038381166001600160a01b0319831681178455604051919092169283917f8be0079c531659141344cd1fd0a4f28419497f9722a3daafe3b4186f6b6457e09190a35050565b6000602082840312156100bf57600080fd5b81516001600160a01b03811681146100d657600080fd5b9392505050565b611511806100ec6000396000f3fe60806040523480156200001157600080fd5b50600436106200005e5760003560e01c806357a2fe931462000063578063715018a614620000935780638da5cb5b146200009f578063f2fde38b14620000b1578063f3b74ac514620000c8575b600080fd5b60015462000077906001600160a01b031681565b6040516001600160a01b03909116815260200160405180910390f35b6200009d620000df565b005b6000546001600160a01b031662000077565b6200009d620000c2366004620003d6565b62000123565b62000077620000d9366004620003fb565b620001c5565b6000546001600160a01b03163314620001155760405162461bcd60e51b81526004016200010c9062000559565b60405180910390fd5b6200012160006200030f565b565b6000546001600160a01b03163314620001505760405162461bcd60e51b81526004016200010c9062000559565b6001600160a01b038116620001b75760405162461bcd60e51b815260206004820152602660248201527f4f776e61626c653a206e6577206f776e657220697320746865207a65726f206160448201526564647265737360d01b60648201526084016200010c565b620001c2816200030f565b50565b600080546001600160a01b03163314620001f35760405162461bcd60e51b81526004016200010c9062000559565b6001546040516000916001600160a01b031690849062000213906200035f565b6001600160a01b03928316815291166020820152606060408201819052600090820152608001604051809103906000f08015801562000256573d6000803e3d6000fd5b50604051631de7d79760e31b815290915081906001600160a01b0382169063ef3ebcb89062000298908f908f908f908f908f908f908f908f90600401620004fa565b600060405180830381600087803b158015620002b357600080fd5b505af1158015620002c8573d6000803e3d6000fd5b50506040516001600160a01b03841692507f2e2b3f61b70d2d131b2a807371103cc98d51adcaa5e9a8f9c32658ad8426e74e9150600090a29b9a5050505050505050505050565b600080546001600160a01b038381166001600160a01b0319831681178455604051919092169283917f8be0079c531659141344cd1fd0a4f28419497f9722a3daafe3b4186f6b6457e09190a35050565b610f4d806200058f83390190565b80356001600160a01b03811681146200038557600080fd5b919050565b60008083601f8401126200039d57600080fd5b50813567ffffffffffffffff811115620003b657600080fd5b602083019150836020828501011115620003cf57600080fd5b9250929050565b600060208284031215620003e957600080fd5b620003f4826200036d565b9392505050565b600080600080600080600080600060e08a8c0312156200041a57600080fd5b893567ffffffffffffffff808211156200043357600080fd5b620004418d838e016200038a565b909b50995060208c01359150808211156200045b57600080fd5b506200046a8c828d016200038a565b90985096505060408a013560ff811681146200048557600080fd5b945060608a0135935060808a01358015158114620004a257600080fd5b9250620004b260a08b016200036d565b9150620004c260c08b016200036d565b90509295985092959850929598565b81835281816020850137506000828201602090810191909152601f909101601f19169091010190565b60c0815260006200051060c083018a8c620004d1565b82810360208401526200052581898b620004d1565b60ff9790971660408401525050606081019390935290151560808301526001600160a01b031660a090910152949350505050565b6020808252818101527f4f776e61626c653a2063616c6c6572206973206e6f7420746865206f776e657260408201526060019056fe60806040523480156200001157600080fd5b5060405162000f4d38038062000f4d8339810160408190526200003491620004d6565b82828282816200006660017f360894a13ba1a3210667c828492db98dca3e2076cc3735a920a3ca505d382bbd62000609565b60008051602062000f06833981519152146200008657620000866200065e565b6200009482826000620000fb565b50620000c4905060017fb53127684a568b3173ae13b9f8a6016e243e63b6e8ee1178d6a717850b5d610462000609565b60008051602062000ee683398151915214620000e457620000e46200065e565b620000ef8262000138565b5050505050506200068a565b620001068362000193565b600082511180620001145750805b156200013357620001318383620001d560201b620002601760201c565b505b505050565b7f7e644d79422f17c01e4894b5f4f588d331ebfa28653d42ae832dc59e38c9798f6200016362000204565b604080516001600160a01b03928316815291841660208301520160405180910390a162000190816200023d565b50565b6200019e81620002f2565b6040516001600160a01b038216907fbc7cd75a20ee27fd9adebab32041f755214dbc6bffa90cc0225b39da2e5c2d3b90600090a250565b6060620001fd838360405180606001604052806027815260200162000f266027913962000395565b9392505050565b60006200022e60008051602062000ee683398151915260001b6200047260201b620002081760201c565b546001600160a01b0316919050565b6001600160a01b038116620002a85760405162461bcd60e51b815260206004820152602660248201527f455243313936373a206e65772061646d696e20697320746865207a65726f206160448201526564647265737360d01b60648201526084015b60405180910390fd5b80620002d160008051602062000ee683398151915260001b6200047260201b620002081760201c565b80546001600160a01b0319166001600160a01b039290921691909117905550565b62000308816200047560201b6200028c1760201c565b6200036c5760405162461bcd60e51b815260206004820152602d60248201527f455243313936373a206e657720696d706c656d656e746174696f6e206973206e60448201526c1bdd08184818dbdb9d1c9858dd609a1b60648201526084016200029f565b80620002d160008051602062000f0683398151915260001b6200047260201b620002081760201c565b6060833b620003f65760405162461bcd60e51b815260206004820152602660248201527f416464726573733a2064656c65676174652063616c6c20746f206e6f6e2d636f6044820152651b9d1c9858dd60d21b60648201526084016200029f565b600080856001600160a01b031685604051620004139190620005b6565b600060405180830381855af49150503d806000811462000450576040519150601f19603f3d011682016040523d82523d6000602084013e62000455565b606091505b509092509050620004688282866200047b565b9695505050505050565b90565b3b151590565b606083156200048c575081620001fd565b8251156200049d5782518084602001fd5b8160405162461bcd60e51b81526004016200029f9190620005d4565b80516001600160a01b0381168114620004d157600080fd5b919050565b600080600060608486031215620004ec57600080fd5b620004f784620004b9565b92506200050760208501620004b9565b60408501519092506001600160401b03808211156200052557600080fd5b818601915086601f8301126200053a57600080fd5b8151818111156200054f576200054f62000674565b604051601f8201601f19908116603f011681019083821181831017156200057a576200057a62000674565b816040528281528960208487010111156200059457600080fd5b620005a78360208301602088016200062f565b80955050505050509250925092565b60008251620005ca8184602087016200062f565b9190910192915050565b6020815260008251806020840152620005f58160408501602087016200062f565b601f01601f19169190910160400192915050565b6000828210156200062a57634e487b7160e01b600052601160045260246000fd5b500390565b60005b838110156200064c57818101518382015260200162000632565b83811115620001315750506000910152565b634e487b7160e01b600052600160045260246000fd5b634e487b7160e01b600052604160045260246000fd5b61084c806200069a6000396000f3fe60806040526004361061004e5760003560e01c80633659cfe6146100655780634f1ef286146100855780635c60da1b146100985780638f283970146100c9578063f851a440146100e95761005d565b3661005d5761005b6100fe565b005b61005b6100fe565b34801561007157600080fd5b5061005b6100803660046106d6565b610118565b61005b6100933660046106f1565b61015f565b3480156100a457600080fd5b506100ad6101d0565b6040516001600160a01b03909116815260200160405180910390f35b3480156100d557600080fd5b5061005b6100e43660046106d6565b61020b565b3480156100f557600080fd5b506100ad610235565b610106610292565b610116610111610331565b61033b565b565b61012061035f565b6001600160a01b0316336001600160a01b031614156101575761015481604051806020016040528060008152506000610392565b50565b6101546100fe565b61016761035f565b6001600160a01b0316336001600160a01b031614156101c8576101c38383838080601f01602080910402602001604051908101604052809392919081815260200183838082843760009201919091525060019250610392915050565b505050565b6101c36100fe565b60006101da61035f565b6001600160a01b0316336001600160a01b03161415610200576101fb610331565b905090565b6102086100fe565b90565b61021361035f565b6001600160a01b0316336001600160a01b0316141561015757610154816103bd565b600061023f61035f565b6001600160a01b0316336001600160a01b03161415610200576101fb61035f565b606061028583836040518060600160405280602781526020016107f060279139610411565b9392505050565b3b151590565b61029a61035f565b6001600160a01b0316336001600160a01b031614156101165760405162461bcd60e51b815260206004820152604260248201527f5472616e73706172656e745570677261646561626c6550726f78793a2061646d60448201527f696e2063616e6e6f742066616c6c6261636b20746f2070726f78792074617267606482015261195d60f21b608482015260a4015b60405180910390fd5b60006101fb6104e5565b3660008037600080366000845af43d6000803e80801561035a573d6000f35b3d6000fd5b60007fb53127684a568b3173ae13b9f8a6016e243e63b6e8ee1178d6a717850b5d61035b546001600160a01b0316919050565b61039b8361050d565b6000825111806103a85750805b156101c3576103b78383610260565b50505050565b7f7e644d79422f17c01e4894b5f4f588d331ebfa28653d42ae832dc59e38c9798f6103e661035f565b604080516001600160a01b03928316815291841660208301520160405180910390a16101548161054d565b6060833b6104705760405162461bcd60e51b815260206004820152602660248201527f416464726573733a2064656c65676174652063616c6c20746f206e6f6e2d636f6044820152651b9d1c9858dd60d21b6064820152608401610328565b600080856001600160a01b03168560405161048b9190610774565b600060405180830381855af49150503d80600081146104c6576040519150601f19603f3d011682016040523d82523d6000602084013e6104cb565b606091505b50915091506104db8282866105f6565b9695505050505050565b60007f360894a13ba1a3210667c828492db98dca3e2076cc3735a920a3ca505d382bbc610383565b6105168161062f565b6040516001600160a01b038216907fbc7cd75a20ee27fd9adebab32041f755214dbc6bffa90cc0225b39da2e5c2d3b90600090a250565b6001600160a01b0381166105b25760405162461bcd60e51b815260206004820152602660248201527f455243313936373a206e65772061646d696e20697320746865207a65726f206160448201526564647265737360d01b6064820152608401610328565b807fb53127684a568b3173ae13b9f8a6016e243e63b6e8ee1178d6a717850b5d61035b80546001600160a01b0319166001600160a01b039290921691909117905550565b60608315610605575081610285565b8251156106155782518084602001fd5b8160405162461bcd60e51b81526004016103289190610790565b803b6106935760405162461bcd60e51b815260206004820152602d60248201527f455243313936373a206e657720696d706c656d656e746174696f6e206973206e60448201526c1bdd08184818dbdb9d1c9858dd609a1b6064820152608401610328565b807f360894a13ba1a3210667c828492db98dca3e2076cc3735a920a3ca505d382bbc6105d5565b80356001600160a01b03811681146106d157600080fd5b919050565b6000602082840312156106e857600080fd5b610285826106ba565b60008060006040848603121561070657600080fd5b61070f846106ba565b9250602084013567ffffffffffffffff8082111561072c57600080fd5b818601915086601f83011261074057600080fd5b81358181111561074f57600080fd5b87602082850101111561076157600080fd5b6020830194508093505050509250925092565b600082516107868184602087016107c3565b9190910192915050565b60208152600082518060208401526107af8160408501602087016107c3565b601f01601f19169190910160400192915050565b60005b838110156107de5781810151838201526020016107c6565b838111156103b7575050600091015256fe416464726573733a206c6f772d6c6576656c2064656c65676174652063616c6c206661696c6564a2646970667358221220890290a26d60431f3fe189bde0c056b661fe405766ec664d89a0aa6dd76fd1a464736f6c63430008070033b53127684a568b3173ae13b9f8a6016e243e63b6e8ee1178d6a717850b5d6103360894a13ba1a3210667c828492db98dca3e2076cc3735a920a3ca505d382bbc416464726573733a206c6f772d6c6576656c2064656c65676174652063616c6c206661696c6564a264697066735822122001f1f37020f9fc03386caca5f44fde1dce9723fedf6d0e03ca8bad469258e8fe64736f6c63430008070033",
  "immutableReferences": {},
  "source": "pragma solidity ^0.8.7;\n\nimport './BEP20UpgradeableProxy.sol';\nimport './IProxyInitialize.sol';\nimport \"@openzeppelin/contracts/access/Ownable.sol\";\n\ncontract BEP20TokenFactory is Ownable {\n\n    address public logicImplement;\n\n    event TokenCreated(address indexed token);\n\n    constructor(address _logicImplement) {\n        logicImplement = _logicImplement;\n    }\n\n    function createBEP20Token(string calldata name, string calldata symbol, uint8 decimals, uint256 amount, bool mintable, address bep20Owner, address proxyAdmin) external onlyOwner returns (address) {\n        BEP20UpgradeableProxy proxyToken = new BEP20UpgradeableProxy(logicImplement, proxyAdmin, \"\");\n\n        IProxyInitialize token = IProxyInitialize(address(proxyToken));\n        token.initialize(name, symbol, decimals, amount, mintable, bep20Owner);\n        emit TokenCreated(address(token));\n        return address(token);\n    }\n}",
  "sourcePath": "C:\\Users\\tim\\Projects\\GitHub\\sata-contracts-bsc-v1\\contracts\\BEP20TokenFactory.sol",
  "compiler": {
    "name": "solc",
    "version": "0.8.7+commit.e28d00a7.Emscripten.clang"
  },
  "schemaVersion": "3.4.3",
  "updatedAt": "2021-09-19T10:32:30.467Z",
  "devdoc": {
    "kind": "dev",
    "methods": {
      "owner()": {
        "details": "Returns the address of the current owner."
      },
      "renounceOwnership()": {
        "details": "Leaves the contract without owner. It will not be possible to call `onlyOwner` functions anymore. Can only be called by the current owner. NOTE: Renouncing ownership will leave the contract without an owner, thereby removing any functionality that is only available to the owner."
      },
      "transferOwnership(address)": {
        "details": "Transfers ownership of the contract to a new account (`newOwner`). Can only be called by the current owner."
      }
    },
    "version": 1
  },
  "userdoc": {
    "kind": "user",
    "methods": {},
    "version": 1
  }
}